:020000041000EA
:10000000002000082B0100100D0000008D010010E1
:1000100000000000000000000000000000000000E0
:100020000000000000000000000000008901001036
:10003000000000000000000089010010890100108C
:100040008901001089010010890100108901001048
:100050008901001089010010890100108901001038
:100060008901001089010010890100108901001028
:100070008901001089010010890100108901001018
:100080008901001089010010890100108901001008
:1000900089010010890100108901001089010010F8
:1000A00089010010890100108901001089010010E8
:1000B00089010010890100108901001089010010D8
:1000C00010B5064C2378002B07D1054B002B02D02E
:1000D000044800E000BF0123237010BDF8030008AE
:1000E0000000000054150010044B10B5002B03D085
:1000F0000349044800E000BF10BDC04600000000F6
:10010000FC030008541500100230800803D00130B1
:100110000238FCD1C046C0467047EFF3108072B67B
:10012000704780F3108870477047FFF7FDFF72B685
:100130000F4C104DAC4209DA21686268A368043B99
:1001400002DBC858D050FAE70C34F3E70A490B4AEF
:100150000020521A02DD043A8850FCDC08480949A4
:100160000860BFF34F8F00F0F9FE00F0A9FEFEE734
:100170006015001078150010F80300081406000838
:100180000000000808ED00E0FEE7FEE700B50420EF
:100190007146084202D0EFF3098001E0EFF30880D6
:1001A000043000F08DFCFEE7014B18607047C0463C
:1001B00010060008044B1B681A00BA3212881B6A2A
:1001C0005043C0187047C046100600081D4B9842A7
:1001D0000FD010D840282FD005D8002830D01028B4
:1001E00028D019481EE0802828D080235B00984240
:1001F000F7D1144816E0154B984214D008D8A02324
:100200001B0698421CD0124B9842EAD1A0200BE06A
:10021000104B98420AD0104B984209D00F4B98428D
:10022000DFD10F487047A420C003FBE70D48F9E772
:100230000D48F7E70D48F5E70D48F3E70D48F1E7FE
:100240000020EFE706005200FF005200010000F01E
:10025000090000A0040000F0050000F0030000F019
:100260000100520002005200030052000100500041
:10027000020050000500520010B50020FFF79AFF61
:100280000A4B1C682300BC331B68C0180368002B92
:100290000ADB074B1868FFF799FF012263689A6031
:1002A0009A68002AFCD110BD0248FCE7100600083D
:1002B00014040008020050000D4B10B5186000280F
:1002C00004D0FE235B42038000234380094B1B685C
:1002D0001A0050321278002A08D051331B78002BB4
:1002E00004D002220449002000F0E0F810BDC0460E
:1002F00024040008100600084501000810B5024853
:10030000FFF7DAFF10BDC046B8030008064B1B68B4
:10031000BC331B68C3181B68002B03DA89B2416029
:10032000002070470148FCE71006000801008A0021
:100330000368002B04DA89B2C26081600020704734
:100340000048FCE701008A00064B1B68BC331B68B1
:10035000C3181B68002B03DAC36800200B607047CA
:100360000148FCE71006000801008A00024B1A68E9
:10037000002A00D11860704728040008F0B52C242A
:100380006043154C1F0024681D0A2018FF242540D7
:100390002740124C1B0C26680760346A4560836056
:1003A000BA36368877433F1907612F0080376D01D1
:1003B0007F01E71964190A4D47611F043B43641923
:1003C000236000238361059BC2610162002B01D081
:1003D0001B888381F0BDC046280400081006000871
:1003E00008100000F0B5836885B002AD2B80154B76
:1003F00002681B68066A1B8F476A9B18AB704368CC
:100400000095826AC16A040003930369C068FFF71C
:10041000B5FF00213B000A0000913000FFF7AEFF5E
:10042000216B280000F000FB0022AB5E002B06DBF6
:100430001F2213401E3A9A401300034A136005B06E
:10044000F0BDC0461006000800E100E0F7B52C251D
:10045000134C684326686943341825690193711861
:10046000002D19D08869002818D12E68002E15DAC1
:100470006768012426004B689E40B44613689EB20C
:1004800063461B041E431660EA608C61BC40019BFE
:10049000A4B24B62AC60FEBD0248FCE70248FAE73A
:1004A0002804000804028A0007028A002C23434320
:1004B00006480068C018C369934204D9036A002043
:1004C0009200D15070470248FCE7C046280400085B
:1004D0000A028A0073B5002642690400D5680196B5
:1004E0002B0CB34221D01B0413601368194B006915
:1004F0001B68BC331B68C3181B68B34215DA01A91B
:10050000FFF722FFB0420CD10198E26903681E0C8C
:10051000DBB29A4205D9226A9B009B58002B00D07F
:10052000984731002069FFF7F1FEADB2002D09D0E8
:1005300063691D6000251B68636AAB4205D098475C
:100540006562A56163691B6873BDA36A002BF8D05F
:100550009847F6E7100600082C2310B54343034ADA
:100560001068C018FFF7B6FF10BDC0462804000889
:10057000F8B5194B0F001B681A003332127882420B
:1005800027D9002925D01F250A68154021D1190037
:10059000BA310C88114E60431C6AD2080419290034
:1005A0007868346000F03EFF29002000FFF7AEFEBF
:1005B0003A0029003068FFF7BBFE041E07D1010096
:1005C0003068FFF7A3FE03002000002B00D0044892
:1005D000F8BD0448FCE7C046100600082C040008DB
:1005E00001018A0003018A0010B5002A0DD10029FB
:1005F00014D10B4B1A681300BA331B885843136A83
:10060000C018084B1860080010BD002906D0064B22
:10061000196019005A60FFF7ABFFF5E70348F3E7ED
:10062000100600082C040008BC03000803018A001F
:10063000F7B5184F04003B680191DE6833688342C8
:1006400026D90025A94202D1FFF767FD05003868C9
:100650000368002B1ADA1F22012322409340640909
:100660007268A4001419226813420DD09A432260C4
:1006700000240021FFF74AFE019B002B02D1280035
:10068000FFF74FFD2000FEBD034CF2E7034CF3E7FC
:10069000034CF7E72C0400080201880003018800DE
:1006A00004018A000A4B1B68DB681A6882420DD974
:1006B00059681F23420918401E3B8340920050583E
:1006C0001840431E9841034BC01870470248FCE78E
:1006D0002C0400080001880004018A00054B1B68F7
:1006E0001A0088321B6812689B181868000AC0B28A
:1006F0007047C04610060008044B1B681A00883279
:100700001B6812689B181868000E704710060008D6
:10071000024B18694007C00F7047C04600002740D1
:10072000A6220549D2008B580220DB439B0702D04A
:1007300001238858184070470000264010B5FFF785
:10074000EFFF0023022801D1014B1B68180010BDE8
:1007500034040008094A83009B18D022920098585C
:1007600007221040042807D1C022920098581F2366
:1007700003408020400018437047C04600002640D8
:1007800010B5FFF7E7FF03281CD005D8012816D0C5
:1007900023D9FFF7D3FF10BD1223FF33984213D0A4
:1007A0001423FF33984215D0033B984210D10C4AD2
:1007B0000C4BD358002B0BDA80200002EBE70A4BDE
:1007C0001868E8E7094BFBE7FFF7A2FF0028F3D121
:1007D0000020E0E7024A064BEBE70648DBE7C046AD
:1007E000000026400C050000300400088C040008BE
:1007F0003C05000000127A00B023154ADB00D358F4
:1008000010B59903DB01DB0F890BC371114B01603C
:10081000D3580F24D904DB01DB0D0381B123DB00A6
:10082000D358C90C818019002140817219092140D7
:10083000C172D9029B009B0F8373074BC90CD3581D
:1008400081815A05DB01520FDB0D8271038210BDDD
:1008500000002640840500008C05000010B5104BF8
:10086000421E1B683F331B78934216D97F221F24F8
:100870008030FF300B4B8000C3581A400A701A0CAE
:100880002240180A8A701A012040E2404870002075
:100890009B009B0FCA700B7110BD0348FCE7C0465C
:1008A000100600080000264001004A00F0B587B09D
:1008B0000400FFF765FF0600002C38D101AD1422BB
:1008C0002100280000F0AEFD2800FFF795FFB023BF
:1008D000274ADB00D358002B03DAAC7B023C631EB3
:1008E0009C41EA79019F531E9A41A8880132002C4D
:1008F0001AD0002818D0002A16D00023190000F0C2
:100900007BFC00230C0005003A003000190000F0C9
:1009100073FCE6076A0832436308801859412A00CD
:10092000230000F049FC0600300007B0F0BD114B79
:100930001B683F331B78A342F6D301AD052200218B
:10094000280000F06FFD200029008034FFF786FFAB
:10095000FF34074BA400E3580024A34203DA2C79A8
:10096000023C631E9C412F786878AA78BFE7C04696
:100970000000264010060008E02210B50124094BB3
:1009800080009200C018835880589B069B0F9C40A3
:100990000F231840FFF78AFF63081818210000F0A2
:1009A0007FFB10BD00002640144B30B51A680724A9
:1009B00013002C331B781F2B15D883081D00A5436B
:1009C0002C1E0FD103342040A040814012689B00B0
:1009D0002032D3180A00FF2181401C686240114078
:1009E0006140196030BD802320401B0618438023DE
:1009F0009B011268C91889008850F3E710060008A7
:100A0000064B9A680300064810339B00824202D1CD
:100A1000985899507047034AD058FBE700ED00E022
:100A20000000000800000010F8B506000D000028C6
:100A30003AD00023C05E002828DBB178FFF7B4FF6E
:100A40000024FF22032794460023F05E716883B2DE
:100A50001F40FF006646BA4089013140D243B94089
:100A6000002815DB114E83089B009B19C026B60099
:100A70009F593A40114399510D4B9A680D4B9A4238
:100A800002D12900FFF7BCFF2000F8BD0A4CD8E7CF
:100A90000F263340083B064E9B089B009B19DE69DE
:100AA00032401143D961E7E7034CEDE700E100E094
:100AB00000ED00E00000000801005600FEE7000025
:100AC00002680A4B10B51A6042685A6082689A60E0
:100AD000C268DA6002691A6142695A6182699A6180
:100AE000C269DA61FFF7EAFF10BDC046D80300080B
:100AF000B0235B055A782120002A01D05878C0B273
:100B00007047B0235B059A89002A02D0988980B289
:100B1000704780204000FBE77FB5274B86000D0023
:100B2000F458042901D0012927D100200FE0A3683F
:100B30002B420BD1E36829001A685B68029201938B
:100B4000039302A8236898471C4B1C606469002C1F
:100B50000BD01B4B9842EAD1012DE8D1174B184816
:100B60001A68184B9A5104B070BD012DFBD1144B7B
:100B70009842F3D0134B9C51F5E7022906D10F4B55
:100B80001B68181EEFD01C6903E01C006369002B72
:100B9000FBD10020002CE6D0A3682B4209D1E368EA
:100BA00029001A685B6802920193039302A82368E4
:100BB00098472469EEE7C0467804000874040008EA
:100BC000FF004200600400081A4B1B6819008831BE
:100BD0001A68096851180968016219008C3109689E
:100BE0005218126842621A0046321278002A1FD048
:100BF0009A68E0321268D2061AD5F222DB68D20176
:100C00009A580260F022D2019A5842600A4A9A58D1
:100C100082600A4A9A58C260094A9A580261094A8F
:100C20009A584261084A9A588261084A9B58C3619F
:100C30007047C046100600080478000008780000DD
:100C40000C7800001078000014780000187800007C
:100C50001A4B1B681A008832196812688A18016AD0
:100C600011601A008C32196812688A18416A116082
:100C70001A0046321278002A1ED09A68E0321268B2
:100C8000D20619D5F0224168DB68D20199508168FB
:100C90000B4A9950C1680B4A995001690A4A995008
:100CA00041690A4A99508169094A9950C169094ABA
:100CB00099500168E83299507047C0461006000804
:100CC00004780000087800000C780000107800001C
:100CD0001478000018780000F7B50700FFF708FF48
:100CE000664D06006B68002B00D07DE0FFF715FA1B
:100CF0006B680090002B00D089E0614C22681300E3
:100D0000BA33198807234B43126A9B181A68002AC2
:100D1000FCDADB68DA0021D51B0F1B075948019369
:100D2000FFF752FF5849212E00D075E0226890202D
:100D3000130088331C68136800011C1923680B40DA
:100D40000343236013008C3312681B68D3181A689E
:100D50001140084318604B4B019A13438022484EC0
:100D60009205316813430A00BA3210880722002422
:100D70004243096A5218D36054605368FFF7C1FEBA
:100D800080235B0098425DD1380000F061FB32683F
:100D90001300BA33198807234B43126A9B181A6849
:100DA000002AFCDADF68FB0003D538010009FFF7F1
:100DB0004FFF364B32681F401300BA3319880723A0
:100DC0004B43126A00989B180022DF605A60FFF7BD
:100DD000A8F9002C0FD16B68002B03D0082101204B
:100DE000FFF79AFE2000FEBD01210800FFF794FEE8
:100DF000041E00D17AE76B68002B03D0022101208A
:100E0000FFF78AFE224B9C42ECD0224CEAE70421F9
:100E10000120FFF781FE70E72068802203008833FD
:100E20001C68036852001C1923680B40134323609D
:100E300003008C3300681B68C318186801400A431C
:100E40001A6088E733681A00BC32196A12685218AF
:100E50001168002910DBBA331B889A181368002B1D
:100E60000ADB04230C4A11690B431361012F01D0E3
:100E700030BF8CE720BF8AE7054C88E7780400087C
:100E80001006000838040008FF00FFFFFFFFFFDF27
:100E900005004200FF00420000ED00E0C02280207B
:100EA000064952008B58C0059B009B0803438B509A
:100EB000802388581B0603438B5070470000264050
:100EC00010B562B6034800F0C1F80020FFF704FF38
:100ED000FBE7C0460020001010B50020FFF73CFBE8
:100EE00010BD704710B50020FFF746FD041E25D049
:100EF000134B1860FFF700FC411C200000F0D0F8F5
:100F0000104B04001860FFF7E9FB411C200000F0C3
:100F1000C7F80D4B441E18600C49200000F0C0F8C3
:100F2000FA210B4B013018708900200000F0B8F84E
:100F3000084B01301860084BC003186010BDC04654
:100F4000C4000008C8000008C000000840420F00AC
:100F5000D4000008D0000008CC00000810B52148DB
:100F6000FFF722F9B022E02130201F4CD200A35815
:100F700089005B005B08A350635883436350802360
:100F80005B04A350194B1A4AE250A0220433920189
:100F9000E250FF22174BE250FFF780FFC0220121F1
:100FA0005200A3588B43A350FFF79BFFFFF79AFF14
:100FB000114B03201A681300BA33198807234B43D7
:100FC000126A80219B180022DA605A600B4AFFF7F0
:100FD0000BFB0B48FFF7CAF90A48FFF703FAFFF7C4
:100FE0008DF910BD6014001000002640840500003B
:100FF000010002008C05000010060008C403000870
:101000009004000820150010024BD86F03231840ED
:101010007047C0460400214010B5FFF77EF807492D
:10102000074ACB6F1A40074B1343CB67102306497F
:101030000A681A42FCD0FFF774F810BD0400214082
:10104000FCFF00000100FA058800214070B50F4C3C
:101050000600FFF762F8E36F0500DB439B0701D151
:10106000FFF7DAFFB0230A4A9B00D650E36F094A24
:1010700009491A40094B1343E36710230A681A42CF
:10108000FCD02800FFF74DF870BDC0460400214099
:1010900000002140FCFF0000880021400300FA0509
:1010A000002243088B4274D303098B425FD3030AA7
:1010B0008B4244D3030B8B4228D3030C8B420DD3BA
:1010C000FF22090212BA030C8B4202D31212090248
:1010D00065D0030B8B4219D300E0090AC30B8B4286
:1010E00001D3CB03C01A5241830B8B4201D38B0334
:1010F000C01A5241430B8B4201D34B03C01A5241D9
:10110000030B8B4201D30B03C01A5241C30A8B421B
:1011100001D3CB02C01A5241830A8B4201D38B0206
:10112000C01A5241430A8B4201D34B02C01A5241AA
:10113000030A8B4201D30B02C01A5241CDD2C3091C
:101140008B4201D3CB01C01A524183098B4201D398
:101150008B01C01A524143098B4201D34B01C01A83
:10116000524103098B4201D30B01C01A5241C308FB
:101170008B4201D3CB00C01A524183088B4201D36A
:101180008B00C01A524143088B4201D34B00C01A56
:101190005241411A00D20146524110467047FFE7C2
:1011A00001B5002000F006F802BDC0460029F7D0C6
:1011B00076E770477047C046002B11D1002A0FD147
:1011C000002900D1002802D00021C943081C07B41F
:1011D000024802A14018029003BDC046D9FFFFFF9C
:1011E00003B4684601B5029800F030F8019B9E46B2
:1011F00002B00CBC7047C046F0B5CE464746150459
:101200002D0C2E0080B50704140C3F0C9946030CDE
:101210007E435D43674363437F19340CE4199C4666
:10122000A54203D980235B029846C4444B464343FE
:101230005143250C36046544360C2404A4195B196B
:10124000591820000CBC90469946F0BDF0B54F46A9
:101250004646D646C0B5040082B00D009146984679
:101260008B422FD82CD04146484600F0CFF82900B9
:101270000600200000F0CAF8331A9C46203B9A462C
:1012800000D576E04B46524693401F004B466246DF
:1012900093401E00AF4228D825D05346A41BBD4121
:1012A000002B00DA7BE0002200230092019301234F
:1012B000524693400193012362469340009318E005
:1012C0008242D0D900220023009201930A9B002B76
:1012D00001D01C605D600098019902B01CBC904672
:1012E0009946A246F0BDA342D7D90022002300921E
:1012F00001936346002BE9D0FB07984641467208EC
:101300000A437B0866460EE0AB4201D1A2420CD8EC
:10131000A41A9D41012024196D410021013E241889
:101320004D41002E06D0AB42EED9013E24196D414D
:10133000002EF8D100980199534600196941002BFD
:1013400023DB2B005246D3402A006446E2401C00B7
:1013500053461500002B2DDB26005746BE403300B8
:1013600026006746BE403200801A994100900191E4
:10137000ACE7624620239B1A4A46DA4061461300D6
:1013800042468A4017001F4380E7624620239B1A8B
:101390002A0066469A402300F3401343D4E762468E
:1013A000202300219B1A0022009101920122DA40A1
:1013B000019280E72023624626009B1ADE402F0020
:1013C000B0466646B74046463B003343C8E7C04692
:1013D0001C2101231B04984201D3000C10391B0A65
:1013E000984201D3000A08391B09984201D3000929
:1013F000043902A2105C40187047C0460403020280
:1014000001010101000000000000000010B50029EA
:1014100003D1FFF7DDFF203002E0081CFFF7D8FF03
:1014200010BDC04603001218934200D170471970D6
:101430000133F9E7F8B5C046F8BC08BC9E467047D2
:10144000F8B5C046F8BC08BC9E46704700000000D6
:1014500001B40248844601BC604700BFA1020008F5
:101460000000214000002540000001400000344001
:1014700000002440000031400000324000001F41C5
:10148000000023400000114000001D41101010100A
:10149000101010101010108019005500F0000501F8
:1014A00005013B04101C01010FC0000000040000F6
:1014B00001010101011D3A57789600000000000863
:1014C0002000101208000000001F00000010000F94
:1014D000002000023F06080E00080009000A000B69
:1014E00024282C3034000000100000009000000080
:1014F00088000000080000008000000004F00000E8
:1015000000F00000400200002005A000D001000112
:101510008001A00140019001B001200010000000F6
:1015200003000000010000000100000000000000B6
:10153000050360000400000001000000000000003E
:10154000010000000604600008000000F00500082B
:10155000D90E001000000000F4FCFF7F0100000025
:101560000000001000000008C000000080150010FE
:10157000C0000008F8020000F80300081C02000088
:1015800000093D0000127A0000093D000000D0076C
:10159000A00F000004000000E9000010C1000010CE
:1015A00080B230B5C00020D0104B07221C68230049
:1015B000BA331B885A43236AD31819680029FCDA06
:1015C0003E210B4B062519600A4B0B491960A321DC
:1015D0000A4BC9005D500A4958505858206A1218E1
:1015E000002050605A58002AFCDA30BD100600086E
:1015F00004012640080126401E1F0000000026406E
:101600001C05000010B54378FF2B11D100F024F920
:101610000400032000F0E8F8C3685A680123116849
:101620001943116011681942FCD1200000F0FCF848
:1016300010BDF7B500900020019100F0D5F83F4DA6
:1016400006002B681A005033BC3214681B7804194A
:10165000002B5AD000F0F0F8070003281BD000F050
:10166000FBF8374A374B0500D358002B3EDA364A91
:101670000121300000F0F8F8002837D10198FFF779
:101680008FFF009B002B3ED02368002BFCDB00F07B
:10169000B3F804002BE0062000F0A6F82B68BC335A
:1016A0001B68C0180368002B02DA284C2000FEBD1E
:1016B000002000F0A9F8264B9842F6D00023254AD6
:1016C00019001268012000F0A7F80025A842ECD10B
:1016D000002000F099F81E4A1F4B904203D09D4213
:1016E000E3D00135F4E79D42B9D1DEE7174C032F73
:1016F00005D10121002000F0A7F80028F9D1280029
:1017000000F092F8D2E7154CF1E700F0A5F80E4A88
:1017100005000121300000F0A7F8002809D1009B46
:10172000002B08D02368002BFCDB00F065F80400D8
:10173000E5E7064CE3E7094CE1E7C0461006000880
:10174000000026401C05000014040008050052009B
:101750000101880024040008F04902000100500043
:10176000184BF7B51B68184A5C68042311690B43D2
:101770001361012824D030BF2300FC331B69002BE8
:101780001DD1A320114B1249124AC0000F681E58E8
:1017900015680195104D0D6006251D503E20106006
:1017A0000E483E351D501D58002DFCDA0C48FC3407
:1017B00020610F60A321C9005E50019B1360F7BD3B
:1017C00020BFD9E71006000800ED00E00000264029
:1017D00008012640040126401E1F00001C050000D1
:1017E000AAAAAAAA0000000001B40248844601BCCB
:1017F000604700BFB501001001B40248844601BC37
:10180000604700BF7902001001B40248844601BC61
:10181000604700BFA506001001B40248844601BC21
:10182000604700BF4D04001001B40248844601BC6B
:10183000604700BF2301001001B40248844601BC88
:10184000604700BF0910001001B40248844601BC83
:10185000604700BF3106001001B40248844601BC55
:10186000604700BF1B01001001B40248844601BC60
:10187000604700BF310300100000000000000000BE
:101880000000000000000000000000000000000058
:041890000000000054
:1020000000780408ED2500100D0000006126001086
:1020100061260010612600106126001000000000FB
:102020000000000000000000000000005D2600101D
:102030005D260010000000005D2600105D260010E7
:102040005D2600105D2600105D2600105D26001044
:102050005D2600105D2600105D2600105D26001034
:102060005D2600105D2600105D2600105D26001024
:102070005D2600105D2600105D2600105D26001014
:102280005D2600105D2600105D26001010B5054C7F
:10229000237833B9044B13B10448AFF30080012312
:1022A000237010BDC428000800000000D080011079
:1022B00008B5034B1BB103490348AFF3008008BDC9
:1022C00000000000C8280008D0800110014B012246
:1022D0001A707047E028000870B500263446154B88
:1022E0001B680421986906F053F90546F8B90120E6
:1022F00004F01AFF0134502CF1D90E4B1B68042155
:10230000986906F045F90028F7D00EE0012004F0A6
:102310000BFF01344F2CF9D9064B1B680421986937
:1023200006F036F901260028D9D12C46F2E73046CE
:1023300070BD00BFA0DE000838B5124C124920461F
:1023400001F0C2FD204601F0FDFD00220F492046AC
:1023500002F05EF801221146204601F07BFE0C4D92
:102360000C49284601F0B0FD284601F0EBFD21465E
:10237000284602F08DFA01221146284601F06AFE35
:1023800038BD00BFB0910008382C01100000770163
:10239000B89100082B2C011070B5064600200AF0F9
:1023A00053FC12480AF022FC4FF0FF300AF016FCF2
:1023B0004FF07F400AF016FC02200AF03BFC0AF0C6
:1023C000A7FC0CF07BFA04460CF082FA00EBD07507
:1023D0006D100AF08FFB00EBD07004EBD474A5EB0A
:1023E0006002611030460AF079FE70BDB43701100A
:1023F00010B5ADF55A3DADF5467D00210691664A12
:1024000007A80FF06FFD00F07DFB00B101BE62B6C2
:10241000FFF792FF4FF4E1322821292009F002FF53
:102420000123062219460D2002F048FF012306224F
:1024300019466F2002F042FF0123022200210420EE
:1024400002F03CFF00B101BE544C554B0093554B7C
:1024500054225521204603F0F1F90022524920462A
:1024600003F07CFD012307221021204603F082FDAA
:10247000204603F099F90023049303930822029263
:102480000193FF230093622361226021474804F0F7
:1024900077F9B0B14549464800F0FEFB142000F042
:1024A000F7FB00F0F1FB434C20600AF05FFC424870
:1024B000FFF772FF01231A462168404800F010FC24
:1024C00044E03F49394804F029F8E3E73D4C2368EC
:1024D00098690122072100F5D06006F061F83A48BA
:1024E000FFF75AFF01231A4632490968334800F0C2
:1024F000F7FB2368986900220521803006F050F828
:102500000024324B1C7032480FF00CFE314B9C42C1
:1025100006D806AB195D304805F0E8FB0134F5E755
:10252000284B1B68986901220521803006F038F895
:102530002A48FFF731FF01231A461E4909681F4840
:1025400000F0CEFB06E0012004F0EEFD1F4B1B78EF
:10255000002BBBD1FFF7C0FE0028F4D02048FFF7C6
:102560001BFF01231A4613490968144800F0B8FB01
:10257000144B1B6898690022072100F5D06006F013
:102580000FF84FF47A7004F0CFFD164A06A90348FD
:1025900003F024FCD7E700BFFC6A03001091000899
:1025A000342A0110B8910008CD220010C091000813
:1025B000402A011028920008042A0110E42800088B
:1025C000002D3101A0DE00080C2A0110E0280008CF
:1025D000142A0110FF6A0300A4DE00081C2A01105F
:1025E000282A011080B5010070477047FFF7FCFFF3
:1025F00072B6144C144DAC4209DA21686268A368C3
:10260000043BA2BFC858D050FAE70C34F3E70F4997
:102610000F4A00209142BCBF41F8040BFAE70D4875
:102620000D490860BFF34F8F00F04AFA00F02CFA12
:10263000FFF7DBFF0FF00AFCFFF7DAFE0FF0F2FB0B
:10264000FEE70000DC800110F4800110C4280008BF
:10265000C4E000080020000808ED00E0FEE7FEE707
:1026600000B504207146084202D0EFF3098001E072
:10267000EFF30880043009F077F8FEE7000000006F
:102680000230800803D001300238FCD100BF00BF07
:102690007047EFF3108072B6704780F31088704770
:1026A00008B500F0B1F800F007F800F09FF800F06E
:1026B00017F800F021F808BD08B50021084607F01A
:1026C000E9FCFF220021084607F062FB00210846D2
:1026D00007F0A2FC014802F0BBFE08BD4C2A011025
:1026E00008B5044802F0B4FE00221146332007F07A
:1026F0005BFC08BD502A011010B5264C264A00216B
:10270000204605F0C7FF254802F0A2FE244A012119
:10271000204605F0BFFF234802F09AFE224802F04F
:1027200097FE04F54074214A0421204605F0B2FFCB
:102730001F4802F08DFE1F4A0621204605F0AAFF21
:102740001D4802F085FE1D4A0721204605F0A2FF24
:102750001B4802F07DFE1B4802F07AFE1A4802F088
:1027600077FE1A4802F074FE194802F071FE19480B
:1027700002F06EFE184802F06BFE184802F068FE88
:10278000174802F065FE174802F062FE164802F094
:102790005FFE10BD00003240282B01105C2B0110A1
:1027A000602B0110942B01107C2A0110F02A0110DB
:1027B000242B0110B82A0110EC2A0110802A0110E4
:1027C000B42A0110542A0110582A01105C2A011061
:1027D000602A0110642A0110682A01106C2A011075
:1027E000702A0110742A0110782A0110044B332238
:1027F00042F208015A5042F210015A50704700BF8D
:1028000000003140FEE7000030B583B09621002083
:1028100008F0FCFF08F08CFFF8B1012009F002FB82
:1028200009F0AAFA09F082FB09F06CFB00210846C6
:1028300007F040FE002007F0ABFD012007F090FDFF
:10284000002007F0A3FC654B1B6893F83F4074B170
:10285000204608F011FB013CF9E708F059FF07F0AA
:10286000C5FE07F0B1FE012007F0D4FED5E7002138
:10287000012007F047FF002007F00AFE002800F0C3
:102880008C8007F0F3FF0021084607F03BFF002192
:10289000084607F0DDFD05F039FB514D002400949A
:1028A000234622462146284605F01CFE0094234676
:1028B00022460121284605F015FE4A4807F034FE5D
:1028C000002876D1012007F033FD002007F060FDDD
:1028D000002007F045FD002007F058FC00210120F2
:1028E00007F010FF0021084607F00CFF002102202E
:1028F00007F008FF0021032007F004FF0021042057
:1029000007F000FF384807F0CBFF002855D13748C3
:1029100008F042FA002854D10021084607F098FD3B
:102920000021084607F0C6FD3149012008F0CAFA27
:1029300000284AD142F21071012008F05DFC002805
:1029400047D107F0EBFC002007F0A2FC002007F0C5
:10295000BFFC07F0D1FC002009F0F2FA002007F0DC
:102960007FFC07F031FE012007F054FE64210020B7
:1029700008F04CFF00F04EF81E4802F069FD1E48BA
:1029800002F066FD1D4802F063FD1D4802F060FD87
:102990001C4802F05DFD03B030BD07F0E1FE40F2DF
:1029A000111398427FF46DAF0121002007F050FD14
:1029B00067E70520FFF726FF84E70420FFF722FFE3
:1029C000A5E70420FFF71EFFA6E70320FFF71AFF85
:1029D000B0E70320FFF716FFB3E700BFA0DE000853
:1029E0000000324040420F00982B0110400D0300C0
:1029F000C02B0110AC2B0110B02B0110B42B011017
:102A0000B82B0110BC2B011008B5012006F07AF894
:102A100008BD704710B5002008F054FD00B910BD86
:102A20000446114B186007F0A9FC0130B4FBF0F02C
:102A30000E4B186007F0BAFC0130B4FBF0F40C4BFD
:102A40001C60013C0B4BA3FB04239B0C01330A4A83
:102A500013700A4BA3FB04239B090133084A13603C
:102A6000DB03084A1360DAE790220008942200088A
:102A70008C22000883DE1B43A0220008D34D621085
:102A80009C2200089822000808B50A4805F038FA88
:102A9000FFF7BFFFFFF7BEFF00221146032006F03D
:102AA0007DF8054805F0DCFE044805F02DFF05F033
:102AB000DFFC08BDB8360110983F0008C82B011094
:102AC00008B5FFF7E6FD074AD2F8883043F47003F3
:102AD000C2F88830BFF34F8FBFF36F8FFFF7DDFD74
:102AE00008BD00BF00ED00E008B5044809F00EF88D
:102AF00008B1002008BD0248FCE700BFA42200087E
:102B00000000020610B502F0A1FC044628B144B151
:102B1000FFF7C6FD5CB1204610BD04F0AFFA0446D5
:102B2000F5E740F6E441002004F0F4FAF0E7FFF79F
:102B3000DBFF0446EFE7000008B543F260510348AD
:102B400009F09EFC02480AF0AFF808BD20410008D9
:102B500030760110024A136801331360704700BFDA
:102B60004C92000810B586B0154B0FCB06AC04E9AB
:102B70000F000022FF21134804F0B4FC18B138B153
:102B800058B106B010BD02A90E4804F073FDF6E777
:102B90000D490C4804F06EFCF2E70C4C00220C4985
:102BA000204604F0F3FB0123009307230222214671
:102BB00054F8040C04F02EFC201F04F013FDE0E791
:102BC000FC2B01102C920008A08601003092000816
:102BD000552B001010B5FFF7C5FF0446024804F05E
:102BE00081FA04B101BE10BDC022000808B5022957
:102BF00009D0082907D0012901D0012008BD0348C8
:102C000004F072FBF9E7FFF7ADFFF6E72C9200083E
:102C100000B583B0002201921346164916480AF007
:102C2000BFF90123019301A90BF014FA0BF064FE24
:102C300090B14FF48472B02100200BF040FF4FF4AC
:102C40008472B02100200BF066FF0C4900200BF0CD
:102C50004DFF03B05DF804FBB0224FF484710020F7
:102C60000BF02DFFB0224FF4847100200BF053FFC6
:102C7000EBE700BF747D01102C7E0110D02200080C
:102C80004FF0FF3070470000004870478076000822
:102C900008B500F07BFB08BD38B5044650B159B10A
:102CA000204600F0ABF8054640B11420FFF7F0FFD6
:102CB000284638BD01BEF2E701BEF1E7204600F02C
:102CC0003DFAF2E708B518B100F0DEFE18B908BD0C
:102CD00000F07AFFFAE70148F9E700BF00000607B5
:102CE0002DE9F04105460E461446984663B9002783
:102CF0008CB93146284600F063FDB8F1000F1ED1B3
:102D000017B33846BDE8F0810120FFF7DBFF074627
:102D10000028F5D1ECE70021284600F063FB012CE8
:102D200004D00321304600F05DFBE6E70121284690
:102D300000F058FB0221304600F054FBF1E7002080
:102D4000FFF7C0FF0746DBE741F2B0623146284695
:102D50000FF0A0F8D5E7000008B50022FF210B48CE
:102D600004F0C0FB10B130B158B108BD08490748A4
:102D700004F080FCF7E74FF4FA41044804F07AFBD2
:102D8000F2E7024804F02EFCEFE700BF308D0008A8
:102D90000C2C011008B502291BD0082919D00129D3
:102DA00001D0012008BD134B1B780BBB022803D0B8
:102DB000042809D00120F5E70F4804F025FC012084
:102DC00004F0B2F90120EDE70B4804F08DFA012080
:102DD000E8E7022803D0042806D00120E2E70648ED
:102DE00004F000FC0120DDE7FFF7B6FF0120D9E782
:102DF0000020D7E7548D0008308D000810B53A4BFD
:102E000019603A4B1860002306220121C07802F0B5
:102E100055FA044670B1BCB104B34CB3002C31D0A8
:102E2000002C39D0002C41D0002C54D0002C56D08E
:102E3000204610BD2D4B1868002306220121007981
:102E400002F03CFA0446E6E7284B186800231A46CD
:102E50001946407902F032FA0446DDE7234B186840
:102E6000002306220121807902F028FA0446D4E7E3
:102E70001E4B1868002306220121C07902F01EFAB9
:102E80000446CBE7194B1868002306220121007A7B
:102E900002F014FA0446C3E7144B18680023062214
:102EA0000121407A02F00AFA0446BBE70F4B1B6887
:102EB000D978CB0877290AD80D4A1268906900EBB7
:102EC000C310012201F0070105F06AFBACE7084BD3
:102ED0001B689869F5E7FFF73FFF0446A6E705483A
:102EE00004F000F9A4E700BF588D0008508D0008D9
:102EF000A0DE0008F022000808B5024804F000FC3B
:102F0000400908BD308D000808B50146024B18681D
:102F100003F0A6FE08BD00BF588D000810B582B0B2
:102F20000C460146074B186803F09AFE08B102B040
:102F300010BD01A9034B186803F022FE9DF8043070
:102F40002370F4E7588D000800B583B00A460023CB
:102F50000193009301460348006803F06DFF03B03E
:102F60005DF804FB588D0008014B1870704700BFD6
:102F7000548D000870B506460C461546304B1B684C
:102F8000D97877294BD8CB082E4A1268906900EB84
:102F9000C310002201F0070105F002FB7020FFF7CB
:102FA000B3FF3046FFF7B0FF254B1B68D978CB083D
:102FB000772938D8234A1268906900EBC3100122A0
:102FC00001F0070105F0ECFA0A2008F097FB1C4B12
:102FD0001B68D978CB08772929D81A4A12689069D2
:102FE00000EBC310002201F0070105F0D9FA7220AE
:102FF000FFF78AFF29462046FFF7A6FF104B1B6804
:10300000D978CB08772916D80E4A1268906900EB58
:10301000C310012201F0070105F0C2FA70BD094B8F
:103020001B689869B5E7074B1B689869C7E7054BAC
:103030001B689869D6E7034B1B689869E9E700BFEE
:10304000DC8D0008A0DE000800B583B08DF8071005
:1030500001220DF10701FFF78DFF03B05DF804FBBE
:1030600030B583B005460C46324B1B68D9787729BA
:103070004FD8CB08304A1268906900EBC310002289
:1030800001F0070105F08CFA7020FFF73DFF28469C
:10309000FFF73AFF274B1B68D978CB0877293CD834
:1030A000254A1268906900EBC310012201F0070164
:1030B00005F076FA0A2008F021FB1E4B1B68D97830
:1030C000CB0877292DD81C4A1268906900EBC310F1
:1030D000002201F0070105F063FA7320FFF714FFE7
:1030E0000DF107012046FFF719FF124B1B68D97835
:1030F000CB08772919D8104A1268906900EBC310E1
:10310000012201F0070105F04BFA9DF8070003B01A
:1031100030BD094B1B689869B1E7074B1B6898697C
:10312000C3E7054B1B689869D2E7034B1B68986996
:10313000E6E700BFDC8D0008A0DE000808B53C4BC8
:103140001860417A77295BD8CB083A4A12689069AF
:1031500000EBC310002201F0070105F021FA344B07
:103160001B68197ACB0877294ED8324A12689069C1
:1031700000EBC310002201F0070105F011FA2C4BFF
:103180001B68D979CB08772942D82A4A12689069F6
:1031900000EBC310002201F0070105F001FA244BF7
:1031A0001B68D978CB08772936D8224A12689069EB
:1031B00000EBC310002201F0070105F0F1F91C4BF0
:1031C0001B681979CB0877292AD81A4A126890699E
:1031D00000EBC310002201F0070105F0E1F9144BE8
:1031E0001B689979CB0877291ED8124A1268906912
:1031F00000EBC310002201F0070105F0D1F908BD72
:103200000C4B1B689869A5E70A4B1B689869B1E7E6
:10321000084B1B689869BDE7064B1B689869C9E7AE
:10322000044B1B689869D5E7024B1B689869E1E776
:10323000DC8D0008A0DE000838B54D4C6F2200215F
:1032400020460EF04FFE621C4A4B1A6004F14E02FB
:10325000494B1A602234494B1C60002410E0484A54
:103260001268906900EBC31001F0070105F090F9B6
:1032700080B1651C042C77D0012003F055FF2C464B
:10328000404B1B685979CB087729E8D93C4B1B6820
:103290009869E9E700217220FFF7E2FE00F00F00D5
:1032A000022801D0022060E04021FFF7CDFE00217E
:1032B0000F20FFF7D5FE10F0800F57D002210B2012
:1032C000FFF7C2FE082230490120FFF753FED1214B
:1032D0000720FFF7B9FE02210820FFF7B5FEC22143
:1032E0000920FFF7B1FE03210420FFF7ADFE012105
:1032F0000320FFF7A9FE00210320FFF7A5FE0A2007
:1033000003F012FF002400E01C4601210520FFF716
:103310009BFE642003F008FF03210520FFF794FEC5
:10332000322003F001FF0F210520FFF78DFE322030
:1033300003F0FAFE00210F20FFF792FE10F0400F7D
:1033400007D1631C9BB2042CDED1032B07D80020CD
:103350000BE040210220FFF777FE2346F5E70A2025
:1033600008F0CCF9052000E0012038BD0320FCE77F
:10337000688D00085C8D0008608D0008648D000871
:10338000A0DE0008DC8D00081C2C011010F1090FD4
:103390000EDB10F1040F12DB052813DD0A2814DD03
:1033A0000F2815DD142815DD282815DC5A2301E027
:1033B0004FF49663094A1380094A138070474FF40B
:1033C0006173F7E74FF41673F4E74FF4A573F1E771
:1033D000DC23EFE7B423EDE73C23EBE7D88D0008CF
:1033E000DA8D00082DE9F04F83B005460E460478CB
:1033F00078B1BE4B984209D000270120FFF7B4FDF9
:10340000FFF77AFD01904FF0000A84E101270024C4
:10341000F3E70127FF24F0E714F0400F50D0C0215C
:1034200000EB030C49B214F0100F4BD04FF0300EEC
:1034300041EA0E0114F0040F47D04FF00C0E41EAA0
:103440000E0114F0010F43D04FF0030E41EA0E01BC
:103450008CF8001014F0800F3DD1022108EB020C13
:1034600049B214F0200F38D04FF00C0E41EA0E0193
:1034700014F0080F34D04FF0300E41EA0E01013A3B
:1034800092B214F0020F2ED06FF03F0E41EA0E01FF
:103490008CF8001001339BB2202B00F229810FB968
:1034A00015F8014B032EF5D801A151F826F000BF05
:1034B00019340010ED34001097350010413600101B
:1034C0008021ADE74FF0200EB2E74FF0080EB6E7CF
:1034D0004FF0020EBAE70321C0E74FF0080EC5E730
:1034E0004FF0200EC9E76FF07F0ECFE714F0400FCA
:1034F0003BD0802100EB030C49B214F0100F36D002
:103500004FF0200E41EA0E0114F0040F32D04FF0BC
:10351000080E41EA0E0114F0010F2ED04FF0020EFA
:1035200041EA0E018CF8001014F0800F28D13146CA
:1035300008EB020C49B214F0200F23D04FF0080E14
:1035400041EA0E0114F0080F1FD04FF0200E41EA9F
:103550000E01013A92B214F0020F19D06FF07F0EF3
:1035600041EA0E018CF8001094E74021C2E74FF0C9
:10357000100EC7E74FF0040ECBE74FF0010ECFE778
:103580000221D5E74FF0040EDAE74FF0100EDEE728
:103590004FF0400EE4E714F0400F3BD0C02100EBA9
:1035A000030C49B214F0100F36D04FF0300E41EA40
:1035B0000E0114F0040F32D04FF00C0E41EA0E0150
:1035C00014F0010F2ED04FF0030E41EA0E018CF8DB
:1035D000001014F0800F28D1012108EB020C49B231
:1035E00014F0200F23D04FF00C0E41EA0E0114F01E
:1035F000080F1FD04FF0300E41EA0E01013A92B28F
:1036000014F0020F19D06FF03F0E41EA0E018CF852
:1036100000103FE74021C2E74FF0100EC7E74FF020
:10362000040ECBE74FF0010ECFE70321D5E74FF0B3
:10363000040EDAE74FF0100EDEE74FF0400EE4E73D
:1036400014F0400F3BD0802100EB030C49B214F082
:10365000100F36D04FF0200E41EA0E0114F0040F87
:1036600032D04FF0080E41EA0E0114F0010F2ED0B7
:103670004FF0020E41EA0E018CF8001014F0800F9A
:1036800028D1314608EB020C49B214F0200F23D0A8
:103690004FF0080E41EA0E0114F0080F1FD04FF052
:1036A000200E41EA0E01013A92B214F0020F19D035
:1036B0006FF07F0E41EA0E018CF80010EAE6C0219F
:1036C000C2E74FF0300EC7E74FF00C0ECBE74FF0DC
:1036D000030ECFE70221D5E74FF00C0EDAE74FF0EB
:1036E000300EDEE76FF03F0EE4E700BFFFFF0F1084
:1036F000CAF1AF031BB2594203F0030201F0030108
:1037000058BF4A429B1028498A5C0BF803200AF1F3
:10371000010A1FFA8AFABAF1AF0F3CD8CAEBCA09FC
:10372000CAEB0919DFF890B009EB0B086F220021F2
:1037300040460EF0D7FB08F101081C4BC3F800808F
:1037400009F1480058440630194B186009F1200966
:10375000CB440BF1020B174BC3F800B0202200231F
:103760009AE6C4EBC403C4EB03136F221249194455
:103770000A20FFF7FFFB07210220FFF765FC013459
:10378000A4B2AF2CEDD90D4B1C88FFF7B5FB019B04
:10379000C31A9C4201D90024F3E70020FFF7E4FBA1
:1037A00003B0BDE8F08F00BF242C01105C8D000831
:1037B000608D0008648D000850920008D88D0008C4
:1037C0002DE9F04F83B080460C460120FFF7CCFB7B
:1037D000FFF792FB0190D2210920FFF735FC00256D
:1037E0009BE040220EEB010852B213F0100F07D0FD
:1037F00010F0100F11D04FF0200B03E0C022F1E7C2
:103800004FF0100B42EA0B0213F0040F08D010F037
:10381000040F12D04FF0080B04E04FF0300BF1E72B
:103820004FF0040B42EA0B0213F0010F08D010F026
:10383000010F1BD04FF0020B04E04FF00C0BF1E72F
:103840004FF0010B42EA0B0288F8002013F0800FC2
:103850000FD1012209EB070852B213F0200F0FD04D
:1038600010F0200F19D04FF0080B0BE04FF0030BB6
:10387000E8E710F0800F01D10322EBE70222E9E72D
:103880004FF0040B42EA0B0213F0080F08D010F0BF
:10389000080F14D04FF0200B04E04FF00C0BF1E7B1
:1038A0004FF0100B42EA0B02013FBFB213F0020FC0
:1038B00008D010F0020F1DD06FF07F0303E04FF02F
:1038C000300BEFE740231A4388F80020013189B21A
:1038D000E046202911D8C4461CF8013B14F8010B1E
:1038E000434013F0400F3FF47CAF10F0400F85D001
:1038F000802277E76FF03F03E5E7C5F1AF031BB226
:10390000594203F0030201F0030158BF4A429B10E1
:1039100030498A5CF2540135ADB2AF2D4ED8C5EBBB
:10392000C507C5EB07172C4E07EB06096F220021D0
:1039300048460EF0D7FA09F10109284BC3F8009068
:1039400007F1480EB6440EF1060E254BC3F800E011
:10395000203707EB060A0AF10206224B1E602027D9
:103960000021B6E7C4EBC405C4EB05151A4B1D4492
:103970006F2229460A20FFF7FDFA07210220FFF7F0
:1039800063FBC4F1AF0343F38D032B44002283F8A0
:1039900022206F2229460A20FFF7ECFA0721022095
:1039A000FFF752FB0134A4B2AF2CDBD90E4B1C88BD
:1039B000FFF7A2FA019BC31A9C4201D90024F3E746
:1039C000C2210920FFF740FB0020FFF7CDFA03B02A
:1039D000BDE8F08F242C0110509200085C8D000887
:1039E000608D0008648D0008DA8D000870B5002332
:1039F000202B09D8124A11685522CA541149096866
:103A0000CA5401339BB2F3E70024AF2C16D804F05C
:103A10000302A6080C4D2B680C498A5C9A556F224C
:103A20000B490A20FFF7A6FA07210220FFF70CFB3B
:103A30002B6800229A550134A4B2E6E770BD00BF9E
:103A40005C8D0008608D0008648D0008242C011036
:103A5000688D000808B5002304E00A4A0021D1540B
:103A60000133DBB2152BF8D900210420FFF7ECFA63
:103A70006F2204490A20FFF77DFA07210220FFF791
:103A8000E3FA08BD688D000808B54D4B1B68D9796D
:103A9000772979D8CB084B4A1268906900EBC3109C
:103AA000012201F0070104F07BFD142003F03CFB30
:103AB000434B1B68D978CB08772969D8414A1268EB
:103AC000906900EBC310012201F0070104F068FDCA
:103AD0003B4B1B68D978CB0877295DD8394A1268E7
:103AE000906900EBC310012201F0070104F058FDBA
:103AF000334B1B68197ACB08772951D8314A1268A1
:103B0000906900EBC310012201F0070104F048FDA9
:103B10002B4B1B681979CB08772945D8294A12689D
:103B2000906900EBC310012201F0070104F038FD99
:103B30000A2003F0F9FA224B1B681979CB08772980
:103B400036D8204A1268906900EBC310002201F0B9
:103B5000070104F025FD0A2003F0E6FA184B1B6864
:103B60001979CB08772927D8164A1268906900EB93
:103B7000C310012201F0070104F012FD0A2003F036
:103B8000D3FAFFF759FB08BD0E4B1B68986987E70E
:103B90000C4B1B68986996E70A4B1B689869A2E76B
:103BA000084B1B689869AEE7064B1B689869BAE733
:103BB000044B1B689869C9E7024B1B689869D8E7F2
:103BC000DC8D0008A0DE000808B50120FFF7CCF965
:103BD000FFF70CFFFFF73EFF1E2003F0A5FA784B1E
:103BE0001B68197A772900F2C480CB08754A1268DD
:103BF000906900EBC310002201F0070104F0D0FC33
:103C0000322003F091FA6E4B1B68197ACB087729A2
:103C100000F2B3806B4A1268906900EBC310012276
:103C200001F0070104F0BCFC00210F20FFF718FA97
:103C300010F0400F00F0C18000210B20FFF704FAC4
:103C400001210320FFF700FA03210520FFF7FCF90B
:103C500001210520FFF7F8F9322003F065FA8021F1
:103C60000420FFF7F1F900210520FFF7EDF901210C
:103C70000720FFF7E9F91E2003F056FA504B1B68A6
:103C8000D978CB0877297CD84E4A1268906900EB26
:103C9000C310002201F0070104F082FC484B1B68AE
:103CA000D979CB08772970D8464A1268906900EB19
:103CB000C310002201F0070104F072FC404B1B68A6
:103CC000197ACB08772964D83E4A1268906900EBCC
:103CD000C310002201F0070104F062FC142003F07D
:103CE00023FA374B1B68D978CB08772955D8354A42
:103CF0001268906900EBC310002201F0070104F084
:103D00004FFC2F4B1B681979CB08772949D82D4ACE
:103D10001268906900EBC310002201F0070104F063
:103D20003FFC274B1B689979CB0877293DD8254A5A
:103D30001268906900EBC310012201F0070104F042
:103D40002FFC1E2003F0F0F91D4B1B689979CB085E
:103D500077292ED81B4A1268906900EBC310002205
:103D600001F0070104F01CFC0020FFF7FDF8002023
:103D700008BD144B1B6898693DE7124B1B68986996
:103D80004DE7104B1B68986983E70E4B1B689869D9
:103D90008FE70C4B1B6898699BE70A4B1B68986977
:103DA000AAE7084B1B689869B6E7064B1B68986939
:103DB000C2E7044B1B689869D1E70420D8E700BF2D
:103DC000DC8D0008A0DE00084B7803708B78437010
:103DD0004B7883708B78C37002717047122817D8A4
:103DE000DFE800F00A180C0E161616161616161630
:103DF000161016121616140008207047042070477B
:103E0000012070470520704701207047052070474A
:103E1000012070471020704738B5054614468A4285
:103E200094BF00230123834209D080F001038A421A
:103E30002CBF002101218B4201D04DB138BD07F0CC
:103E400095FF0549A1FB0431890C07F0DFFCF4E77D
:103E5000FEF7E0FDF2E700BF83DE1B4308B506F086
:103E600077FA012804D9032805D001BE002008BD37
:103E70004FF40040FBE74FF40040F8E738B51C462C
:103E8000049D012303FA02F200EB5103B3FBF1F3AB
:103E90002B60934200D92A6074B12A68B0FBF2F219
:103EA000207804F001F80028B8BF404234B16368BC
:103EB000834205D3002038BD0020F7E70020FAE751
:103EC0000048F8E70003020408B548B151B10B7887
:103ED000042B00D001BE0022FFF776FF002008BDB2
:103EE00001BEF3E701BEF2E72DE9F04182B00D46D5
:103EF0000746B0B12846FFF771FFC6B20024B442AE
:103F000017D204238DF804308DF805508DF8064043
:103F10000DEB030001F09CFA804620B10134E4B2BD
:103F2000EDE701BEE6E7012201A93846FFF74CFFA5
:103F300001E0DFF80C80404602B0BDE8F08100BF30
:103F40000201020410B582B00446B8B12278A37809
:103F50009A4215D0002303B901BE04238DF8043022
:103F6000A3788DF80530E3788DF8063001A801F0CC
:103F70006FFA08B90123237102B010BD01BEE5E755
:103F80006278E3789A4201D00023E4E70123E2E774
:103F900008B50346C0B119789A78914216D000222C
:103FA00002B901BE987819284AD8DFE800F04545E3
:103FB00045454C171C2249282B2E494C33364C4979
:103FC0003B3F4C424C4C4C4C01BEE4E75978DA780C
:103FD000914201D00022E3E70122E1E71B4BD3F835
:103FE0002C05C00F30E006F02FFB003818BF012071
:103FF0002AE006F0E1FA003818BF012024E006F0BC
:10400000EDFA21E006F0C6FA1EE0114B1868C0F385
:10401000C00019E006F01AFC16E0D878013006F06E
:1040200003FF11E0D87806F0E5F90DE006F006F997
:104030000AE006F06BF907E0D97806F05DF803E0D6
:1040400001BE002000E0012008BD00BF00002640A6
:10405000000027402DE9F04786B00C46164603467F
:1040600010B318789978884220D0002202B901BE96
:104070009878152800F24081DFE810F03301330111
:10408000330133013E0120003E013E013E014B0061
:1040900054005D003E013E016E00BF003E013E0146
:1040A000160121013E012A0101BEDAE75978DA78CA
:1040B000914201D00022D9E70122D7E72CB3914BDE
:1040C000D3F82C35002B17DA96B9002516E14FF4FA
:1040D0007A7007F013FB0134022C03DC06F0C4FAFB
:1040E0000228F4D106F0C0FA022803D0864D05E17B
:1040F0000024F1E7002501E12EB140F6B83006F0CA
:10410000C5FA0546FAE00020F9E706F0A3FA002513
:10411000F4E01CB106F058FA0025EFE006F066FA6C
:104120000025EBE01CB106F021FA0025E6E006F0E0
:1041300039FA0025E2E05CB146B1744806F0F4F9C2
:104140000546002E40F0DA800025D7E00020F5E794
:1041500006F004FA0025D1E001A806F0EFFD0020EA
:1041600006F0C8F90546002006F018FB074601983E
:10417000A7FB0089BDF808309DF80B2022B302226E
:1041800002FB03F25008002318EB000049F1000184
:104190000DF0CEFCD4B120FA05F8EF40002006F077
:1041A00077F98146B8B1F4B1DEB1594806F0F4FDB3
:1041B0000546B9F1000F40F0A180C5B94246394625
:1041C0000020FFF729FE99E00122D9E727FA05F838
:1041D00020FA05F7E2E7424639460120FFF71CFEC8
:1041E000E1E70020E2E706F041FB0546E1E73A4659
:1041F00041460020FFF710FE80E0DF780137FFB274
:1042000001A9384606F0C0FE0546002876D106F022
:1042100071F98046384606F0C1FA81469DF80400DF
:10422000A9FB00019DF805309DF8062002FB03F272
:104230004FEA520C002310EB0C0041F100010DF08D
:1042400077FCDCB120FA08FA29FA08F9002006F018
:104250001FF98046874216D0DCB10EB142F21075CC
:104260002946384606F0C8FF0546474546D1ADB950
:10427000524649460020FFF7CFFD3FE029FA08FAF1
:1042800020FA08F9E2E7524649460120FFF7C4FD4B
:10429000E2E7384606F0F0FD0546E6E74A465146B5
:1042A0000020FFF7B9FD29E024B1D87806F08AF89C
:1042B000054623E0D87806F0AFF805461EE01CB1AD
:1042C00005F0B2FF002519E005F0C0FF002515E05C
:1042D0001CB106F011F8002510E006F01FF80025CB
:1042E0000CE024B1D97805F097FE054606E0D978B0
:1042F00005F0D0FE054601E001BE064D284606B099
:10430000BDE8F0870000264002004A0040420F004E
:10431000400D03000303020410B50446E8B12278FF
:10432000A3789A421BD0002303B901BE2046FFF7B1
:104330002FFE002865D0A07819285FD8DFE800F0AC
:104340005A5A5A5A17191C1F5E6363635E22262F3E
:10435000455E3B3F48425E51545701BEDFE76278FD
:10436000E3789A4201D00023DEE70123DCE7274807
:1043700048E006F0BBF945E006F066F942E006F0D9
:104380001BF93FE0E07806F009FA3BE006F05EFA40
:1043900008B9002036E0002006F01CFE32E0E0788C
:1043A000013006F041FD08B900202BE0E078013033
:1043B00006F010FE26E0E07807F084F822E006F030
:1043C00071FE1FE007F0FEF81CE0FFF747FD19E063
:1043D00005F056FF10B94FF4004013E0FFF73EFD23
:1043E00010E007F098F80DE007F07CF80AE007F01D
:1043F00086F807E0E17807F09BF803E001BE0020B3
:1044000000E0002010BD4FF40040FBE700127A00EE
:104410002DE9F0478AB00D461646044630B32178A0
:10442000A378994224D0002303B901BEA378192BA5
:1044300000F25E81DFE813F0250125013E013E0117
:104440005C015C0124005C015C015C015C015C01BD
:104450005C015C012C0087005C015C015C015C017B
:104460005C015C015C01F100F100100101BED6E7C6
:104470006278E3789A4201D00023D5E70123D3E79D
:10448000284606F0D7F8002630460AB0BDE8F08787
:1044900005A806F053FC002006F080F90746002826
:1044A0004FD00598A7FB0001BDF818309DF81B20E0
:1044B00092B3022202FB03F254080026334600198D
:1044C00041F100010DF034FB8046304606F012F851
:1044D00028FA00F825FA00F4304605F0D9FF8146A5
:1044E000E0B106F0B3F9824618B106F0BFF906460E
:1044F00040B900222946384606F056FA0646BAF177
:10450000000F11D1B9F1000FBED1A6B92246414624
:104510000020FFF781FCB7E70122CBE722464146A6
:104520000120FFF779FCDCE7734806F035FC002E2C
:10453000E8D10646E6E7424621460020FFF76CFC3C
:10454000A2E76E4EA0E7E4780134E4B203A9204666
:1045500006F01AFD0646002896D1204606F064FCB7
:10456000804600283FD1002E8ED1204606F016F955
:104570009DF80C20A0FB02019DF80D309DF80E2047
:1045800002FB03F257083346C01941F100010DF058
:10459000CFFA8246304605F0ADFF2AFA00FA25FA36
:1045A00000F9304605F074FF0746844220D02046CB
:1045B00006F0F4F80590069500238DF81C308DF870
:1045C0001D3005A9204606F07DFD0646B8F1000F16
:1045D00014D1BC427FF458AFCEB94A4651460020B0
:1045E000FFF71AFC50E7204606F046FC0646BAE7FD
:1045F0004A4651460120FFF70FFCD8E742F21071FE
:10460000204606F0F9FD002EE3D10646E1E75246CA
:1046100049460020FFF700FC36E7002006F052FF75
:1046200005AB0093334608222946FFF727FC0646D0
:1046300000287FF429AFA378182B07D005980138FC
:10464000C0B205F0A5FEFEF7E5F91DE705980138B3
:10465000C0B205F085FEF6E706F044FF05AB009317
:10466000334608222946FFF709FC064600287FF456
:104670000BAF05980138C0B205F088FDFEF7CAF906
:1046800002E706F02FFFA37893B9082205AB009349
:1046900033462946FFF7F2FB064600287FF4F4AEC6
:1046A000059A013AE178A07805F072FB0646EBE640
:1046B0001022EBE706F016FFA378022B16D01D227E
:1046C00005AB0093334629464001FFF7D7FB06466A
:1046D00000287FF4D9AE059B5A0903F01F03013A65
:1046E000E178A07805F0BAFB0646CDE61522E7E7AB
:1046F00001BE034EC8E600BF400D030001030204E3
:10470000020302042DE9F0410446C8B12278A378DF
:104710009A4217D0002303B901BEA078192800F2ED
:10472000A980DFE800F09898A0A0A7A7A7A7A7A74F
:10473000A7A7A7A7A7A7A7A73F7EA717A7171717DA
:1047400001BEE3E76278E3789A4201D00023E2E712
:104750000123E0E7B1F5807F00F28F800139153841
:10476000042800F28C80DFE800F0188A03110A00A8
:10477000C8B205F00DFEFEF74DF9002470E0C8B296
:1047800005F004FDFEF746F9002469E0C8B205F023
:10479000E7FDFEF73FF9002462E0C8B205F098FD9E
:1047A00000245DE0E6780139072938D8DFE801F018
:1047B00004283707373737254FF0000801E04FF05E
:1047C0000208002005F096FE0746002005F060FE76
:1047D00006F000FC20FA07F720FA08F59EB14146E2
:1047E000304605F067FE0446002E39D188B92A46C6
:1047F00039460020FFF710FB32E04FF00308E0E7F6
:104800004FF00108DDE72A4639460120FFF704FB97
:10481000E5E73A4629460020FFF7FEFA20E01A4C69
:104820001EE001390F292CD8DFE801F008132B0A0C
:104830002B2B2B0F2B2B2B2B2B2B2B11002000E0AA
:10484000022005F0D7FC00240AE00320F9E7042049
:10485000F7E70120F5E74A1EE17805F099FA0446EA
:104860002046BDE8F08100234A1EE17805F0F6FA03
:104870000446F5E701BE054CF2E7034CF0E7024CB5
:10488000EEE7014CECE700BF000302040203020460
:104890002DE9F843024600B101B901BE10789378C2
:1048A000984213D0002303B901BE93780D3B092B26
:1048B00000F22B81DFE813F0780029012901D200F2
:1048C000290112004D00EB006300FC005078D37802
:1048D000984201D00023E6E70123E4E7D5788A78FF
:1048E000A2F10D03DBB2012B04D90F2A2FD1CE7810
:1048F000013600E0CE78002005F0FCFD07460020E0
:1049000005F0C6FD06F066FB20FA07F8304606F013
:1049100061FB20FA07F775B1F1B2284605F098FD62
:104920000446002D40F0F38058B93A464146002035
:10493000FFF772FAEBE03A4641460120FFF76CFAC6
:10494000EAE7424639460020FFF766FADFE0714C9D
:10495000DDE08A78A2F10D03DBB2012B03D90F2A27
:1049600006D06C4CD3E0C87805F02AFC0024CEE0D9
:10497000C8780130C0B205F023FC0024C7E08B7872
:10498000042B03D0122B06D0624CC0E0002005F0AF
:104990007FFC0024BBE0CB780BB15E4CB7E001207C
:1049A00005F076FC0024B2E0D6788B78043B072B28
:1049B00021D8DFE803F0230A041020271B1605F096
:1049C00043FE07464FF0010920E005F08FFE074641
:1049D0004FF002091AE005F0EFFD07464FF003091A
:1049E00014E040F211194FF400470FE040F21319A0
:1049F0004FF400470AE001BE464C88E04FF0000942
:104A0000454F03E04FF488794FF40047002006F04B
:104A100059FD8046002005F06DFDC740002005F0DF
:104A200037FD054686420DD04946304605F06AFE00
:104A30000446AE426BD158B93A4641460020FFF7D2
:104A4000EBF964E03A4641460120FFF7E5F9EBE770
:104A5000424639460020FFF7DFF958E08B780A2BF1
:104A600010D00B2B09D0092B02D001BE294C4EE0EF
:104A7000002005F05DFC002449E0012005F058FC11
:104A8000002444E0032005F053FC00243FE08B7831
:104A9000102B03D00B2B06D01E4C38E0012005F064
:104AA000DFFB002433E0002005F0DAFB00242EE0D9
:104AB0008B78043B152B25D8DFE803F01015242450
:104AC00024242424242424240B242424241A241FCE
:104AD000241F002007F034FA002418E0012007F01A
:104AE0002FFA002413E0022007F02AFA00240EE037
:104AF000032007F025FA002409E0042007F020FA3B
:104B0000002404E001BE034C01E001BE034C20463A
:104B1000BDE8F8830103020400127A0002030204D4
:104B200010B582B00446B0B12278A3789A4214D06E
:104B3000002303B901BE04238DF80430A3788DF857
:104B40000530E3788DF8063001A800F0C5FC00239D
:104B5000237102B010BD01BEE6E76278E3789A42A5
:104B600001D00023E5E70123E3E7000008B5034691
:104B700028B11A78082A04D001BE044808BD01BE35
:104B8000F7E7184600F094F9F8E700BF07070304B9
:104B900008B5034628B11A78082A04D001BE044893
:104BA00008BD01BEF7E7184600F026FBF8E700BF96
:104BB0000707030408B5034628B11A78082A04D069
:104BC00001BE012008BD01BEF7E7184600F030F92C
:104BD000F8E710B5044640B12046FFF7EBFF00B1FF
:104BE00001BE2378082B02D010BD01BEF4E7204699
:104BF00000F0C4F8F8E710B5044618B1207808288A
:104C000002D010BD01BEF9E7204600F0F9F8F8E740
:104C100000231F2B06D8054A52F8232022B901335E
:104C2000DBB2F6E70020704701207047E08D0008F6
:104C300038B5EFF305839BB2A3F1420292B20F2A7B
:104C400006D9523B9BB20F2B15D901BEFF2500E0C0
:104C50000025EFF3058292B2A2F110039BB2A2F1FC
:104C6000420189B20F2908D9523A92B20F2A30D99B
:104C700001BEFF2303E00125EBE7323BDBB21C461C
:104C800003EB0513394A52F823002DBB384D384B3E
:104C90009D4223D0374B1B6893F836309C4234BF7B
:104CA0000023012303B101BE324B1968B1F85E3015
:104CB0005A19B1F8603003FB0423596801F00F0161
:104CC0004B1E072B46D8DFE803F01313123B3D3F82
:104CD0004143423BDBB2D2E7274DD8E7254B1B6867
:104CE00093F835309C4234BF00230123DAE70421D6
:104CF000C36D1940036E13B109B1406E98471C4B48
:104D00009D4229D01B4B1B6893F836309C4234BF20
:104D10000023012303B101BE164B1B68B3F85E20CC
:104D20005119B3F8602002FB041201211161B3F89C
:104D30005E201544B3F8603003FB0454236938BD8A
:104D40000821D5E71021D3E72021D1E74021CFE783
:104D50008021CDE70021CBE7064B1B6893F8353067
:104D60009C4234BF00230123D4E700BFE08D00083C
:104D700000002840A0DE00080010284010B50446BE
:104D8000443003F0CBF963782BBB1748A17803F0CC
:104D90005DFA6278A37803EB021303F1320202F0AA
:104DA0001F01530901228A402033104941F8232072
:104DB000BFF34F8FBFF36F8F6278A37803EB0213BB
:104DC0000B4A002142F82310FFF722FF28B12046AA
:104DD00000F082FB10BD0748D8E7074802F046F90B
:104DE000064B00221A70F2E70000284000E100E0C4
:104DF000E08D00080010284000230008608E0008A5
:104E000083B1C36D1943C1654178837803EB011306
:104E100032335201D2B203F1604303F5614383F8A8
:104E200000237047C36D23EA0101C165ECE7000070
:104E300043784BB9054B9A68817801238B401A421D
:104E400014BF012000207047014BF4E70000284008
:104E50000010284038B5022921D008291FD0012987
:104E600015D0114B187838BD00231D430134E4B22E
:104E70001F2C0FD875B90D4B53F824000028F3D020
:104E8000FFF7D6FF08B10123EFE70023EDE7002489
:104E90002546EDE785F00105034B1D70E1E7024B68
:104EA00000221A70DDE700BF608E0008E08D000868
:104EB000F0B583B004460D46FFF7BAFF002840F076
:104EC00079812B682362AB68636204F1440626642F
:104ED000AB7B082B07D0102B32D0202B40F06D81FC
:104EE0000223637601E0002363766B693BB1296995
:104EF000B1FBF3F203FB1212002A40F0608113B3FE
:104F0000022323776A6922632B69B3FBF2F3E3631D
:104F1000B5F90430A362B5F90C30E362B5F90420A9
:104F20006B6903FB02F36363B5F90C206B6903FB48
:104F300002F3A3632B7E9BB90123637523760FE0F5
:104F400001236376D1E7012323772B692363B5F926
:104F50000430A362B5F90C30E36202236375237653
:104F600004F11401304602F0DFFF002840F02981EF
:104F70006378002B40F0C380954D221DA178284610
:104F800003F0D8F8002840F01E81A378904A95429B
:104F900000F0B7808F4A126892F83620934234BFEF
:104FA0000022012202B101BE8A4A1268B2F85E10E4
:104FB0004819B2F8601001FB0301CE60B2F85E1030
:104FC000B2F860006A1800FB03239A68120C1204FE
:104FD0009A60A278E6687E4B9D4200F09B807D4BF4
:104FE0001B6893F836309A4234BF0023012303B183
:104FF00001BE032E00D901BE764B1B68B3F85E00DC
:105000002844B3F8601001FB02F1425893F8627033
:105010000323BB4022EA0302BE4033401343435004
:10502000A0786B4B9D427ED06A4B1B6893F836206C
:10503000904234BF0022012202B101BE654B1968C3
:10504000B1F85E20B1F860302A4403FB00F3D15878
:1050500041F00041D150A3785D4A95426CD05D4A41
:10506000126892F83620934234BF0022012202B126
:1050700001BE584A1168B1F85E202A44B1F86010A8
:1050800001FB032301229A612B6843F000432B604C
:10509000A3784F4A954258D04E4A126892F836206B
:1050A000934234BF0022012202B101BE494A116875
:1050B000B1F85E202A44B1F8601001FB03231B699C
:1050C000043B012B4AD96278A37803EB02133233F5
:1050D000ADF80030072301933F49684606F0C4FA53
:1050E000002872D1BDF90030002B64DB03F01F01F2
:1050F0005B0901228A40394941F823205BE0384DA1
:105100003BE7344A126892F83520934234BF0022BC
:10511000012247E72F4B1B6893F835309A4234BF82
:105120000023012363E72B4B1B6893F83520904243
:1051300034BF002201227FE7264A126892F8352008
:10514000934234BF0022012291E7224A126892F86A
:105150003520934234BF00220122A5E7A2781C4BE0
:105160009D421ED01B4B1B6893F836309A4234BFC9
:105170000023012303B101BE164B1968B1F85E305C
:105180005819B1F8603003FB020301201861B1F82F
:105190005E302B44B1F8601001FB02331B691148EB
:1051A00009E00C4B1B6893F835309A4234BF00235A
:1051B0000123DFE70C4803B0F0BD0C48FBE70C48C7
:1051C000F9E70C48F7E70B48F5E70A48F3E700BFB3
:1051D00000002840A0DE0008314C001000E100E093
:1051E0000010284003070204050702040007020418
:1051F000040702040107020410B50446FFF718FE75
:1052000008BB134B1B7803BB6278A37803EB021334
:1052100002331049CC5CCA56002A0DDB0E4AD05C22
:1052200040EA0420022140F0804006F05BFF0B4B77
:10523000984206D0002010BD02F06F0242F0100428
:10524000ECE70748F7E70648F5E70648F3E700BF4D
:10525000608E0008F8320110D83401100200CE0030
:10526000060701040317020408281CD8DFE800F031
:105270000923051E0B0D0F1113000A20012917D059
:105280007047082070470C20F8E70D20F6E70E2045
:10529000F4E70F20F2E74B1EDBB2012B01D9082007
:1052A000ECE70E20EAE701BE0820E7E70B20E5E780
:1052B00000F0070070470020E2E700002DE9F0430E
:1052C00087B0884617461E4609238DF808304FEAF6
:1052D000D0098DF8099000F007048DF80A40029B70
:1052E000ADF814301B0C8DF81630059DADF810503C
:1052F0002D0C8DF81250049DADF80C502D0C8DF82E
:105300000E5003A800F0A4F8054618B1284607B0CF
:10531000BDE8F08341463846FFF7A6FF0246B9F1E3
:105320000E0F0BD8074B1B68986900EBC9100023C0
:1053300000933346214603F0D5F8E7E7014B1B689D
:105340009869F4E7A0DE0008F0B4032820D00F46E7
:1053500011460446344A32F81060421C162A1AD804
:10536000D2B2314D35F812500122A2402F4C2242C8
:105370004FD0841E122C2AD8DFE804F02C292E29C5
:1053800029102325292929292929292929292700DB
:105390000D270420DDE74FF48675E5E7244A1D80DC
:1053A000002A38D0023812282ED8DFE800F0172D56
:1053B000302D2D1719292D2D2D2D2D2D2D2D2D2D48
:1053C0002B001C4AEBE71C4AE9E71C4AE7E701BE51
:1053D0001D8020E01A4AE2E71A4AE0E7012000E0D7
:1053E0000220874217D2D45D344411FA84F1198027
:1053F000791C81420FDA3A4455783544ADB20AE05F
:105400001020EEE70220ECE701BE0020E9E71A20B9
:10541000E7E73E441E801B88AB4202D20020F0BC6E
:1054200070470948FBE700BF782C01109403100077
:105430005C2C0110602C0110642C0110742C0110E4
:105440003C2C0110402C0110000102040020704788
:10545000F0B583B004460027FDF71BF906460DF1B1
:105460000603A27861782078FFF76EFF054668B9D9
:10547000BDF80630C3F3C70203F007031449895C83
:10548000012202FA03F3194218BF174605B9EFB912
:105490002DB13046FDF701F9284603B0F0BD0DF1FE
:1054A0000603A27861782078FFF74EFF05460028B2
:1054B000EFD1BDF80630C3F3C70103F0070304487A
:1054C00001229A40435C13434354E2E7014DE0E775
:1054D000648E00080101020430B583B00446FDF774
:1054E000D8F805460DF10603A27861782078FFF719
:1054F0002BFF024660B9BDF80630C3F3C70003F0C6
:105500000703074C01219940235C23EA010323543C
:1055100002B101BE2846FDF7C0F803B030BD00BFA0
:10552000648E00082DE9F04782B006468A46534B48
:1055300033F81030421C162A17D8D2B24F4931F82E
:1055400012804FF0010909FA06F929F07F4929F480
:105550006F0929F47C4929F06B09A8EB03081FFAAD
:1055600088F800242746254645E04FF48678E8E78A
:105570008AF800608AF801508AF8027079E0404B9E
:1055800000E0404BB21E122A28D8DFE802F01527AF
:105590002A272715172327272727272727272727BE
:1055A0002500394BEEE7394BECE7394BEAE701BE12
:1055B0000023E7E7374BE5E7012100E002216A1C01
:1055C0008A4204DA2B445A78631C9A420BD0013782
:1055D000FFB20EE01021F2E70221F0E701BE002148
:1055E000EDE71A21EBE70135EDB2002701E00135C7
:1055F000EDB20134A4B244453AD28DF804608DF87E
:1056000005508DF8067001A8FFF722FF0346002819
:10561000AED0B9F1000FEAD0B31E122BC7D801A249
:1056200052F823F07F550010AF550010B55500100B
:10563000AF550010AF55001083550010A355001052
:10564000A7550010AF550010AF550010AF55001012
:10565000AF550010AF550010AF550010AF550010FA
:10566000AF550010AF550010AF550010AB550010EE
:10567000094B184602B0BDE8F08700BF782C011036
:105680003C2C01105C2C0110602C0110642C0110CA
:10569000742C0110402C01100201020470B582B07C
:1056A0000179772917D8CB08134A1268966906EB57
:1056B000C3168379457901F00704009301232A4634
:1056C0002146304602F00EFF0A2D08D00B2D0CD0DB
:1056D000002002B070BD084B1B689E69E9E70122FB
:1056E0002146304602F05CFFF2E7002221463046B8
:1056F00002F056FFECE700BFA0DE000810B582B054
:105700000146772810D8C308094A1268906900EB4F
:10571000C310002400940123082201F0070102F0C5
:10572000E1FE204602B010BD014B1B689869F0E70E
:10573000A0DE00088C2800D001BE002070470000C9
:1057400038B5044668B12379172B0CD1E01D02F05F
:1057500038FB04F1080002F034FB237F172B1CD127
:1057600038BD01BEEFE704F1880001F07FFC25465B
:1057700055F8040B03F058FB0A4B4FF48052C3F862
:105780009020BFF34F8FBFF36F8F2846FFF7A4FE23
:105790000023236017232371D8E704F11C00FFF7CF
:1057A00018FADDE700E100E0034668B393F88520CE
:1057B00062BB83F884201A68D2F8001341F4803168
:1057C000C2F80013D2F8001321F48031C2F800139C
:1057D00019680A6A42F001020A621A682D21C2F8A9
:1057E00000131A684FF48031C2F8001FD2F8002F5E
:1057F0001B68D3F8082F114332F4CA0200D001BE4F
:10580000C3F8081F0020704701BECFE7004870476B
:1058100003170204034670B11B68D3F8002342F457
:105820008032C3F80023D3F8002322F48032C3F877
:1058300000230020704701BEEEE700002DE9F0478D
:1058400088B0884691460446002876D0A0220021E0
:1058500020460CF047FB17232371FF22E2712272CE
:105860002377002302229A49404602F0C9FA0546EE
:10587000002302229749484602F0C2FA0746002D4B
:105880005DD000285BD00168286802F0A5FA0028E6
:1058900055D02B68201D1A889B78A28083708E4B70
:1058A0002360FFF7D5FD0646002849D1294640462A
:1058B00002F02EFA064608B984F80780002E43D07D
:1058C000002E4BD0002E33D1A279844B43F82240D6
:1058D000109B9B79102B00F2F88002232376002383
:1058E00023616361E36084F8843084F885307C4A06
:1058F000C4F88820062284F88C20C4F89430C4F8B8
:105900009040042384F88D3004F1880001F096FB68
:105910008C23ADF8043007230293724901A805F0E7
:10592000A3FE714B4FF480521A612046FFF772FFBD
:1059300036B12046FFF704FF02E001BE86E76B4E5A
:10594000304608B0BDE8F0873946484602F0E0F935
:1059500006460028B4D184F80890B1E701AD644F41
:105960000FCF0FC597E8070085E80700109B1B685D
:105970004BF68032934200F2A080109A157905FB15
:1059800003F5012005F09EFD4FF0010C4FF0FF3AAA
:105990004FF0020EE046E14620E01B1A9A450BD874
:1059A00053460132D2B29A46102A09D802FB07F3B5
:1059B0009842F2D9C31AF1E79646E0468946F0E7E5
:1059C0000131C9B2042905D80CFB01F707FB05F723
:1059D0000222E9E70CF1010C5FFA8CFCBCF1040F28
:1059E00001D86146EEE709F1FF398DF8049008F11E
:1059F000FF388DF805800EF1FF3E8DF806E0109B14
:105A00001B795B088DF80830109B5B79012B1BD04C
:105A1000022B1DD04BB1374E002E7FF453AF01A99E
:105A2000206803F045F906464CE701238DF809305C
:105A3000109B9B79103B082B41D8DFE803F00D4009
:105A40003240364040403A0002238DF80930EFE7FB
:105A500003238DF80930EBE700238DF81530109BF8
:105A600093F9072002F11803DBB22D2B29D8109BE4
:105A700093F908301833DBB22D2B24D819321E4B82
:105A800083FB0201A1EBE2728DF81720109A92F9C4
:105A90000820193283FB0213A3EBE2738DF8183050
:105AA000BAE701238DF81530D9E702238DF81530B8
:105AB000D5E703238DF81530D1E70E4EACE70D4E38
:105AC000AAE70C4EA8E70B4EA6E7042306E700BFA3
:105AD000502E0110402E01100000A242888E0008B6
:105AE000A15D0010795B001000E100E0000F0204EE
:105AF000A82C0110010F02045655555510B4044648
:105B0000C8B194F8843003B913602368D3F8043320
:105B10001068DBB2984200D91360237E022B0CD0B0
:105B200000231068984213D92068D0F8080341F880
:105B300023000133F5E701BEE3E700231068984234
:105B400006D92068D0F8080321F813000133F5E7DF
:105B500000205DF8044B7047034638B1D3F89C2011
:105B600042B1D3F898301BB10120704701BEF5E770
:105B70000020704700207047F0B589B0EFF3058032
:105B8000103800B2FFF7D6FD844B53F82040002CAC
:105B900000F002812368D3F8005F35F4CA0200D018
:105BA00001BEC3F8005FD3F8003F15F4041F00F0F6
:105BB000DC8094F88430002B00F0D580D4F8983045
:105BC000002B00F0A080237F172B1CD0D4F89C3032
:105BD000002B42D10021D4F89C30002B40F094805F
:105BE000C4F89830E36813F0010F40F08D8023680B
:105BF000D3F8082F22F4803032F4CA0200D001BE5C
:105C0000C3F8080F80E0D4F89C302BB9D4F89C304E
:105C1000002B74D00021DEE7019301AAD4F898107C
:105C20002046FFF76BFF019ED4F89C309E4200D9BE
:105C300001BEFCF72EFDD4F89C309B1BC4F89C30B1
:105C40002BB1D4F89830227E02FB063600E0002605
:105C5000C4F89860FCF721FDD8E704F11C00FEF7BA
:105C6000A9FF08B10021B6E7D4F89C60802E21D9A5
:105C70008026236803F5427301930023ADF80830B2
:105C8000D4F8982003920122ADF81020227ED20091
:105C90008DF81220059606938DF81C3004F11C0730
:105CA00001A93846FEF762FF034658B14BB301BE67
:105CB000002190E701230722194604F11C00FEF79A
:105CC0009AFFD6E7D4F89C309E4200D901BEFCF77B
:105CD000E0FCD4F89C309B1BC4F89C306BB1D4F82A
:105CE0009830227E02FB0636C4F89860FCF7D5FC9B
:105CF0003846FEF74DFF0346D8E70026F4E71021AB
:105D000069E7002167E7002115F4803F2ED041F0BC
:105D100001012BE02268D2F8082301332D2BF9DD95
:105D200023687F22C3F8002323684FF48032C3F82E
:105D3000002FD3F8003F2046FFF70EFF70B9E3684D
:105D400013F0010F0AD12368D3F8082F22F4803111
:105D500032F4CA0200D001BEC3F8081F012384F840
:105D60008430002102E00023D8E7002115F4802FC1
:105D700001D041F0020115F4001F01D041F00401EF
:105D800015F4800F01D041F00801E368194003D0F9
:105D900023690BB16069984709B0F0BD888E00088F
:105DA00010B51446022915D0082913D0012902D0B4
:105DB00094F8850010BD13681B6A1BB1002384F89A
:105DC0008530F5E71046FFF7C7FE08B90123F6E76F
:105DD0000023F4E7002384F88530E9E7F0B589B0C3
:105DE0000E461546044600285DD094F88530002BF9
:105DF00040F0A9802046FFF7AFFE002840F0A580C4
:105E0000534B4FF48052C3F89020BFF34F8FBFF332
:105E10006F8FC4F89860C4F89C5094F88430002BBD
:105E200079D0237F172B40D0D4F89C60802E68D97E
:105E30008026236803F5427301930023ADF80830F0
:105E4000D4F8982003920122ADF81020227ED200CF
:105E50008DF81220059606938DF81C3004F11C076E
:105E600001A93846FEF782FE0546002854D1D4F831
:105E70009C309E4200D901BEFCF70BFCD4F89C304C
:105E80009B1BC4F89C30002B43D0D4F89830227E62
:105E900002FB0636C4F89860FCF7FFFB3846FEF7B5
:105EA00077FE054638E001BE9FE7019501AAD4F8C8
:105EB00098102046FFF722FE019DD4F89C309D42A9
:105EC00000D901BEFCF7E5FBD4F89C305B1BC4F89D
:105ED0009C30A3B1D4F89830227E02FB0535C4F87B
:105EE0009850FCF7DAFBD4F89C5055BB23699BB162
:105EF0000022C4F898201021606998470CE0002522
:105F0000EDE701230722194604F11C00FEF773FE9A
:105F10008FE70026BEE70025D4F89C3053B12368F4
:105F2000D3F8082F42F4803132F4CA0200D001BE07
:105F3000C3F8081F064B4FF480521A61284609B077
:105F4000F0BD0025E8E7034DF8E7034DF6E700BF95
:105F500000E100E003170204020F020470B50446DA
:105F60000E461546FCF795FB26616561FCF795FB2F
:105F700070BD00002DE9F04105460F4614469846D5
:105F80000A460521224801F060FF0646B8F1000FDD
:105F90001CD0E9683943E9602B6830F4CA0200D0AC
:105FA00001BEC3F8006FD3F8003F2B68D3F8080F89
:105FB000064336F4CA0200D001BEC3F8086F64017C
:105FC000E4B2144B83F88C43BDE8F081E96821EA20
:105FD0000701E960FCF75DFB074695F8843073B173
:105FE0002A68D2F8083F23EA060636F4CA0300D02E
:105FF00001BEC2F8086F3846FCF74FFBDFE72846C2
:10600000FFF7AAFD0028EBD026F48036E8E700BFB2
:10601000C42C011000E100E038B50346084850F8F0
:106020002340084850F8235044B12DB100231846AE
:106030000BB92046A84738BD0123F8E70123F6E74E
:10604000B48E0008908E00082DE9F04105460F46F9
:10605000084601F011FF064600244FF0010817E042
:10606000022229463046FFF7D7FF0136F6B2B44286
:10607000F6D8022F1AD0082F18D0012F19D1B8F155
:10608000000F16D00C4B01221A7012E00134E4B25A
:10609000082CEED8324629462046FFF7BDFF804641
:1060A0000028F3D1012FF1D10026E0E7024B0022B6
:1060B0001A704046BDE8F0818C8E000812381E2808
:1060C00021D8DFE800F01E202020202020202020E2
:1060D00020202020202020202020202020102312DB
:1060E0001416181A1C000020704702207047032065
:1060F000704704207047052070470620704707202E
:1061000070470820704701BE00207047012070478B
:1061100008B5EFF30580103800B2FFF7CFFF024B50
:1061200053F8200008BD00BFB48E00082DE9F047E9
:1061300081460F4690469A46002405E057F80C0029
:10614000FFF786F9C0B10134444519D24FEAC40CB7
:1061500007EBC4052E794E45F5D1BAF1000FEDD00D
:106160009AF80030122BE9D1514657F80C0001F093
:1061700033FE0028E7D004E02868FFF7ADF900E01F
:1061800000252846BDE8F087014B1878704700BF0E
:106190008C8E000808B5124B43F82010114B43F8C1
:1061A000202000231A4601E00133DBB2082B08D877
:1061B0000B4850F823000028F6D0012A07D00132FE
:1061C000F2E72AB901B101BE074800F04FFF08BD50
:1061D000012AFCD10029FAD0034800F02FFFF6E78E
:1061E000B48E0008908E00081023000800F006000E
:1061F000042807D0062807D0022801D000207047C5
:106200000120704702207047032070472DE9F843B2
:1062100080460F46164699460024032C14D80C4B92
:1062200053F8242008F10403D2080A4D55F824102D
:106230003846FFF77BFF306010B90134E4B2ECE779
:1062400089F80040002000E00348BDE8F88300BF63
:10625000542D0110442D01100816020408B5C37E08
:10626000A3B943189B7AFF2B10D00844817B09B94E
:1062700082F00102D908772B09D8074800688069A5
:1062800000EBC11003F0070102F08AF908BD0249D2
:1062900009688869F6E700BFA0DE00082DE9F04133
:1062A00082B0FFF735FF48B10446054655F8200B8C
:1062B000294603F07FF994F85C3013B902B0BDE8C9
:1062C000F0812946206803F0C1F810F0010FF5D1E4
:1062D000616D51B10223A4F8483000226265A36DBC
:1062E0002068009503F02EF8E8E7E76C07B3012378
:1062F000A4F84830266D9E420BD804F14A080023CA
:10630000E3642068009533463A46414603F01AF8A4
:10631000D4E7013E07EB0308324694F84A104046A2
:106320000BF0E0FDE36C3344E36401232365E8E70D
:106330000022A4F8482084F85C20A17C2046FFF7C6
:106340008DFFBBE700B583B00B4650F8201B0091D2
:106350000190022B05D0042B0BD0012003B05DF877
:1063600004FB1146684603F073F8B0FA80F0400968
:10637000F4E71146684603F0DDF8B0FA80F0400912
:10638000ECE700002DE9F04F83B00C46904605463F
:10639000E0B1A97D687D03F07DFE05F0A3F8064617
:1063A000EB7EABBB4FF0000ACDF804A04FF0FF3BF3
:1063B0000427102F28D804FB07F94E4508D2042FD4
:1063C00006D1294C204603B0BDE8F08F01BEE0E7BE
:1063D0004E4511D305F086F800EB5900B0FBF9F0FB
:1063E000B6FBF0F399450AD9A9EB03039B4503D902
:1063F00043B1824601979B460137FFB2D9E7A3EB31
:106400000903F3E782460197019B88F800301BE0FF
:1064100007EE904AF8EE677AF7EE006A86EEA77A02
:10642000DFED127A67EE277A9FED117A77EEC77A61
:10643000DFED106A86EEA77ABCEEC77A17EE103A47
