:020000041000EA
:10000000002000082B0100100D0000008D010010E1
:1000100000000000000000000000000000000000E0
:100020000000000000000000000000008901001036
:10003000000000000000000089010010890100108C
:100040008901001089010010890100108901001048
:100050008901001089010010890100108901001038
:100060008901001089010010890100108901001028
:100070008901001089010010890100108901001018
:100080008901001089010010890100108901001008
:1000900089010010890100108901001089010010F8
:1000A00089010010890100108901001089010010E8
:1000B00089010010890100108901001089010010D8
:1000C00010B5064C2378002B07D1054B002B02D02E
:1000D000044800E000BF0123237010BDF8030008AE
:1000E0000000000054150010044B10B5002B03D085
:1000F0000349044800E000BF10BDC04600000000F6
:10010000FC030008541500100230800803D00130B1
:100110000238FCD1C046C0467047EFF3108072B67B
:10012000704780F3108870477047FFF7FDFF72B685
:100130000F4C104DAC4209DA21686268A368043B99
:1001400002DBC858D050FAE70C34F3E70A490B4AEF
:100150000020521A02DD043A8850FCDC08480949A4
:100160000860BFF34F8F00F0F9FE00F0A9FEFEE734
:100170006015001078150010F80300081406000838
:100180000000000808ED00E0FEE7FEE700B50420EF
:100190007146084202D0EFF3098001E0EFF30880D6
:1001A000043000F08DFCFEE7014B18607047C0463C
:1001B00010060008044B1B681A00BA3212881B6A2A
:1001C0005043C0187047C046100600081D4B9842A7
:1001D0000FD010D840282FD005D8002830D01028B4
:1001E00028D019481EE0802828D080235B00984240
:1001F000F7D1144816E0154B984214D008D8A02324
:100200001B0698421CD0124B9842EAD1A0200BE06A
:10021000104B98420AD0104B984209D00F4B98428D
:10022000DFD10F487047A420C003FBE70D48F9E772
:100230000D48F7E70D48F5E70D48F3E70D48F1E7FE
:100240000020EFE706005200FF005200010000F01E
:10025000090000A0040000F0050000F0030000F019
:100260000100520002005200030052000100500041
:10027000020050000500520010B50020FFF79AFF61
:100280000A4B1C682300BC331B68C0180368002B92
:100290000ADB074B1868FFF799FF012263689A6031
:1002A0009A68002AFCD110BD0248FCE7100600083D
:1002B00014040008020050000D4B10B5186000280F
:1002C00004D0FE235B42038000234380094B1B685C
:1002D0001A0050321278002A08D051331B78002BB4
:1002E00004D002220449002000F0E0F810BDC0460E
:1002F00024040008100600084501000810B5024853
:10030000FFF7DAFF10BDC046B8030008064B1B68B4
:10031000BC331B68C3181B68002B03DA89B2416029
:10032000002070470148FCE71006000801008A0021
:100330000368002B04DA89B2C26081600020704734
:100340000048FCE701008A00064B1B68BC331B68B1
:10035000C3181B68002B03DAC36800200B607047CA
:100360000148FCE71006000801008A00024B1A68E9
:10037000002A00D11860704728040008F0B52C242A
:100380006043154C1F0024681D0A2018FF242540D7
:100390002740124C1B0C26680760346A4560836056
:1003A000BA36368877433F1907612F0080376D01D1
:1003B0007F01E71964190A4D47611F043B43641923
:1003C000236000238361059BC2610162002B01D081
:1003D0001B888381F0BDC046280400081006000871
:1003E00008100000F0B5836885B002AD2B80154B76
:1003F00002681B68066A1B8F476A9B18AB704368CC
:100400000095826AC16A040003930369C068FFF71C
:10041000B5FF00213B000A0000913000FFF7AEFF5E
:10042000216B280000F000FB0022AB5E002B06DBF6
:100430001F2213401E3A9A401300034A136005B06E
:10044000F0BDC0461006000800E100E0F7B52C251D
:10045000134C684326686943341825690193711861
:10046000002D19D08869002818D12E68002E15DAC1
:100470006768012426004B689E40B44613689EB20C
:1004800063461B041E431660EA608C61BC40019BFE
:10049000A4B24B62AC60FEBD0248FCE70248FAE73A
:1004A0002804000804028A0007028A002C23434320
:1004B00006480068C018C369934204D9036A002043
:1004C0009200D15070470248FCE7C046280400085B
:1004D0000A028A0073B5002642690400D5680196B5
:1004E0002B0CB34221D01B0413601368194B006915
:1004F0001B68BC331B68C3181B68B34215DA01A91B
:10050000FFF722FFB0420CD10198E26903681E0C8C
:10051000DBB29A4205D9226A9B009B58002B00D07F
:10052000984731002069FFF7F1FEADB2002D09D0E8
:1005300063691D6000251B68636AAB4205D098475C
:100540006562A56163691B6873BDA36A002BF8D05F
:100550009847F6E7100600082C2310B54343034ADA
:100560001068C018FFF7B6FF10BDC0462804000889
:10057000F8B5194B0F001B681A003332127882420B
:1005800027D9002925D01F250A68154021D1190037
:10059000BA310C88114E60431C6AD2080419290034
:1005A0007868346000F03EFF29002000FFF7AEFEBF
:1005B0003A0029003068FFF7BBFE041E07D1010096
:1005C0003068FFF7A3FE03002000002B00D0044892
:1005D000F8BD0448FCE7C046100600082C040008DB
:1005E00001018A0003018A0010B5002A0DD10029FB
:1005F00014D10B4B1A681300BA331B885843136A83
:10060000C018084B1860080010BD002906D0064B22
:10061000196019005A60FFF7ABFFF5E70348F3E7ED
:10062000100600082C040008BC03000803018A001F
:10063000F7B5184F04003B680191DE6833688342C8
:1006400026D90025A94202D1FFF767FD05003868C9
:100650000368002B1ADA1F22012322409340640909
:100660007268A4001419226813420DD09A432260C4
:1006700000240021FFF74AFE019B002B02D1280035
:10068000FFF74FFD2000FEBD034CF2E7034CF3E7FC
:10069000034CF7E72C0400080201880003018800DE
:1006A00004018A000A4B1B68DB681A6882420DD974
:1006B00059681F23420918401E3B8340920050583E
:1006C0001840431E9841034BC01870470248FCE78E
:1006D0002C0400080001880004018A00054B1B68F7
:1006E0001A0088321B6812689B181868000AC0B28A
:1006F0007047C04610060008044B1B681A00883279
:100700001B6812689B181868000E704710060008D6
:10071000024B18694007C00F7047C04600002740D1
:10072000A6220549D2008B580220DB439B0702D04A
:1007300001238858184070470000264010B5FFF785
:10074000EFFF0023022801D1014B1B68180010BDE8
:1007500034040008094A83009B18D022920098585C
:1007600007221040042807D1C022920098581F2366
:1007700003408020400018437047C04600002640D8
:1007800010B5FFF7E7FF03281CD005D8012816D0C5
:1007900023D9FFF7D3FF10BD1223FF33984213D0A4
:1007A0001423FF33984215D0033B984210D10C4AD2
:1007B0000C4BD358002B0BDA80200002EBE70A4BDE
:1007C0001868E8E7094BFBE7FFF7A2FF0028F3D121
:1007D0000020E0E7024A064BEBE70648DBE7C046AD
:1007E000000026400C050000300400088C040008BE
:1007F0003C05000000127A00B023154ADB00D358F4
:1008000010B59903DB01DB0F890BC371114B01603C
:10081000D3580F24D904DB01DB0D0381B123DB00A6
:10082000D358C90C818019002140817219092140D7
:10083000C172D9029B009B0F8373074BC90CD3581D
:1008400081815A05DB01520FDB0D8271038210BDDD
:1008500000002640840500008C05000010B5104BF8
:10086000421E1B683F331B78934216D97F221F24F8
:100870008030FF300B4B8000C3581A400A701A0CAE
:100880002240180A8A701A012040E2404870002075
:100890009B009B0FCA700B7110BD0348FCE7C0465C
:1008A000100600080000264001004A00F0B587B09D
:1008B0000400FFF765FF0600002C38D101AD1422BB
:1008C0002100280000F0AEFD2800FFF795FFB023BF
:1008D000274ADB00D358002B03DAAC7B023C631EB3
:1008E0009C41EA79019F531E9A41A8880132002C4D
:1008F0001AD0002818D0002A16D00023190000F0C2
:100900007BFC00230C0005003A003000190000F0C9
:1009100073FCE6076A0832436308801859412A00CD
:10092000230000F049FC0600300007B0F0BD114B79
:100930001B683F331B78A342F6D301AD052200218B
:10094000280000F06FFD200029008034FFF786FFAB
:10095000FF34074BA400E3580024A34203DA2C79A8
:10096000023C631E9C412F786878AA78BFE7C04696
:100970000000264010060008E02210B50124094BB3
:1009800080009200C018835880589B069B0F9C40A3
:100990000F231840FFF78AFF63081818210000F0A2
:1009A0007FFB10BD00002640144B30B51A680724A9
:1009B00013002C331B781F2B15D883081D00A5436B
:1009C0002C1E0FD103342040A040814012689B00B0
:1009D0002032D3180A00FF2181401C686240114078
:1009E0006140196030BD802320401B0618438023DE
:1009F0009B011268C91889008850F3E710060008A7
:100A0000064B9A680300064810339B00824202D1CD
:100A1000985899507047034AD058FBE700ED00E022
:100A20000000000800000010F8B506000D000028C6
:100A30003AD00023C05E002828DBB178FFF7B4FF6E
:100A40000024FF22032794460023F05E716883B2DE
:100A50001F40FF006646BA4089013140D243B94089
:100A6000002815DB114E83089B009B19C026B60099
:100A70009F593A40114399510D4B9A680D4B9A4238
:100A800002D12900FFF7BCFF2000F8BD0A4CD8E7CF
:100A90000F263340083B064E9B089B009B19DE69DE
:100AA00032401143D961E7E7034CEDE700E100E094
:100AB00000ED00E00000000801005600FEE7000025
:100AC00002680A4B10B51A6042685A6082689A60E0
:100AD000C268DA6002691A6142695A6182699A6180
:100AE000C269DA61FFF7EAFF10BDC046D80300080B
:100AF000B0235B055A782120002A01D05878C0B273
:100B00007047B0235B059A89002A02D0988980B289
:100B1000704780204000FBE77FB5274B86000D0023
:100B2000F458042901D0012927D100200FE0A3683F
:100B30002B420BD1E36829001A685B68029201938B
:100B4000039302A8236898471C4B1C606469002C1F
:100B50000BD01B4B9842EAD1012DE8D1174B184816
:100B60001A68184B9A5104B070BD012DFBD1144B7B
:100B70009842F3D0134B9C51F5E7022906D10F4B55
:100B80001B68181EEFD01C6903E01C006369002B72
:100B9000FBD10020002CE6D0A3682B4209D1E368EA
:100BA00029001A685B6802920193039302A82368E4
:100BB00098472469EEE7C0467804000874040008EA
:100BC000FF004200600400081A4B1B6819008831BE
:100BD0001A68096851180968016219008C3109689E
:100BE0005218126842621A0046321278002A1FD048
:100BF0009A68E0321268D2061AD5F222DB68D20176
:100C00009A580260F022D2019A5842600A4A9A58D1
:100C100082600A4A9A58C260094A9A580261094A8F
:100C20009A584261084A9A588261084A9B58C3619F
:100C30007047C046100600080478000008780000DD
:100C40000C7800001078000014780000187800007C
:100C50001A4B1B681A008832196812688A18016AD0
:100C600011601A008C32196812688A18416A116082
:100C70001A0046321278002A1ED09A68E0321268B2
:100C8000D20619D5F0224168DB68D20199508168FB
:100C90000B4A9950C1680B4A995001690A4A995008
:100CA00041690A4A99508169094A9950C169094ABA
:100CB00099500168E83299507047C0461006000804
:100CC00004780000087800000C780000107800001C
:100CD0001478000018780000F7B50700FFF708FF48
:100CE000664D06006B68002B00D07DE0FFF715FA1B
:100CF0006B680090002B00D089E0614C22681300E3
:100D0000BA33198807234B43126A9B181A68002AC2
:100D1000FCDADB68DA0021D51B0F1B075948019369
:100D2000FFF752FF5849212E00D075E0226890202D
:100D3000130088331C68136800011C1923680B40DA
:100D40000343236013008C3312681B68D3181A689E
:100D50001140084318604B4B019A13438022484EC0
:100D60009205316813430A00BA3210880722002422
:100D70004243096A5218D36054605368FFF7C1FEBA
:100D800080235B0098425DD1380000F061FB32683F
:100D90001300BA33198807234B43126A9B181A6849
:100DA000002AFCDADF68FB0003D538010009FFF7F1
:100DB0004FFF364B32681F401300BA3319880723A0
:100DC0004B43126A00989B180022DF605A60FFF7BD
:100DD000A8F9002C0FD16B68002B03D0082101204B
:100DE000FFF79AFE2000FEBD01210800FFF794FEE8
:100DF000041E00D17AE76B68002B03D0022101208A
:100E0000FFF78AFE224B9C42ECD0224CEAE70421F9
:100E10000120FFF781FE70E72068802203008833FD
:100E20001C68036852001C1923680B40134323609D
:100E300003008C3300681B68C318186801400A431C
:100E40001A6088E733681A00BC32196A12685218AF
:100E50001168002910DBBA331B889A181368002B1D
:100E60000ADB04230C4A11690B431361012F01D0E3
:100E700030BF8CE720BF8AE7054C88E7780400087C
:100E80001006000838040008FF00FFFFFFFFFFDF27
:100E900005004200FF00420000ED00E0C02280207B
:100EA000064952008B58C0059B009B0803438B509A
:100EB000802388581B0603438B5070470000264050
:100EC00010B562B6034800F0C1F80020FFF704FF38
:100ED000FBE7C0460020001010B50020FFF73CFBE8
:100EE00010BD704710B50020FFF746FD041E25D049
:100EF000134B1860FFF700FC411C200000F0D0F8F5
:100F0000104B04001860FFF7E9FB411C200000F0C3
:100F1000C7F80D4B441E18600C49200000F0C0F8C3
:100F2000FA210B4B013018708900200000F0B8F84E
:100F3000084B01301860084BC003186010BDC04654
:100F4000C4000008C8000008C000000840420F00AC
:100F5000D4000008D0000008CC00000810B52148DB
:100F6000FFF722F9B022E02130201F4CD200A35815
:100F700089005B005B08A350635883436350802360
:100F80005B04A350194B1A4AE250A0220433920189
:100F9000E250FF22174BE250FFF780FFC0220121F1
:100FA0005200A3588B43A350FFF79BFFFFF79AFF14
:100FB000114B03201A681300BA33198807234B43D7
:100FC000126A80219B180022DA605A600B4AFFF7F0
:100FD0000BFB0B48FFF7CAF90A48FFF703FAFFF7C4
:100FE0008DF910BD6014001000002640840500003B
:100FF000010002008C05000010060008C403000870
:101000009004000820150010024BD86F03231840ED
:101010007047C0460400214010B5FFF77EF807492D
:10102000074ACB6F1A40074B1343CB67102306497F
:101030000A681A42FCD0FFF774F810BD0400214082
:10104000FCFF00000100FA058800214070B50F4C3C
:101050000600FFF762F8E36F0500DB439B0701D151
:10106000FFF7DAFFB0230A4A9B00D650E36F094A24
:1010700009491A40094B1343E36710230A681A42CF
:10108000FCD02800FFF74DF870BDC0460400214099
:1010900000002140FCFF0000880021400300FA0509
:1010A000002243088B4274D303098B425FD3030AA7
:1010B0008B4244D3030B8B4228D3030C8B420DD3BA
:1010C000FF22090212BA030C8B4202D31212090248
:1010D00065D0030B8B4219D300E0090AC30B8B4286
:1010E00001D3CB03C01A5241830B8B4201D38B0334
:1010F000C01A5241430B8B4201D34B03C01A5241D9
:10110000030B8B4201D30B03C01A5241C30A8B421B
:1011100001D3CB02C01A5241830A8B4201D38B0206
:10112000C01A5241430A8B4201D34B02C01A5241AA
:10113000030A8B4201D30B02C01A5241CDD2C3091C
:101140008B4201D3CB01C01A524183098B4201D398
:101150008B01C01A524143098B4201D34B01C01A83
:10116000524103098B4201D30B01C01A5241C308FB
:101170008B4201D3CB00C01A524183088B4201D36A
:101180008B00C01A524143088B4201D34B00C01A56
:101190005241411A00D20146524110467047FFE7C2
:1011A00001B5002000F006F802BDC0460029F7D0C6
:1011B00076E770477047C046002B11D1002A0FD147
:1011C000002900D1002802D00021C943081C07B41F
:1011D000024802A14018029003BDC046D9FFFFFF9C
:1011E00003B4684601B5029800F030F8019B9E46B2
:1011F00002B00CBC7047C046F0B5CE464746150459
:101200002D0C2E0080B50704140C3F0C9946030CDE
:101210007E435D43674363437F19340CE4199C4666
:10122000A54203D980235B029846C4444B464343FE
:101230005143250C36046544360C2404A4195B196B
:10124000591820000CBC90469946F0BDF0B54F46A9
:101250004646D646C0B5040082B00D009146984679
:101260008B422FD82CD04146484600F0CFF82900B9
:101270000600200000F0CAF8331A9C46203B9A462C
:1012800000D576E04B46524693401F004B466246DF
:1012900093401E00AF4228D825D05346A41BBD4121
:1012A000002B00DA7BE0002200230092019301234F
:1012B000524693400193012362469340009318E005
:1012C0008242D0D900220023009201930A9B002B76
:1012D00001D01C605D600098019902B01CBC904672
:1012E0009946A246F0BDA342D7D90022002300921E
:1012F00001936346002BE9D0FB07984641467208EC
:101300000A437B0866460EE0AB4201D1A2420CD8EC
:10131000A41A9D41012024196D410021013E241889
:101320004D41002E06D0AB42EED9013E24196D414D
:10133000002EF8D100980199534600196941002BFD
:1013400023DB2B005246D3402A006446E2401C00B7
:1013500053461500002B2DDB26005746BE403300B8
:1013600026006746BE403200801A994100900191E4
:10137000ACE7624620239B1A4A46DA4061461300D6
:1013800042468A4017001F4380E7624620239B1A8B
:101390002A0066469A402300F3401343D4E762468E
:1013A000202300219B1A0022009101920122DA40A1
:1013B000019280E72023624626009B1ADE402F0020
:1013C000B0466646B74046463B003343C8E7C04692
:1013D0001C2101231B04984201D3000C10391B0A65
:1013E000984201D3000A08391B09984201D3000929
:1013F000043902A2105C40187047C0460403020280
:1014000001010101000000000000000010B50029EA
:1014100003D1FFF7DDFF203002E0081CFFF7D8FF03
:1014200010BDC04603001218934200D170471970D6
:101430000133F9E7F8B5C046F8BC08BC9E467047D2
:10144000F8B5C046F8BC08BC9E46704700000000D6
:1014500001B40248844601BC604700BFA1020008F5
:101460000000214000002540000001400000344001
:1014700000002440000031400000324000001F41C5
:10148000000023400000114000001D41101010100A
:10149000101010101010108019005500F0000501F8
:1014A00005013B04101C01010FC0000000040000F6
:1014B00001010101011D3A57789600000000000863
:1014C0002000101208000000001F00000010000F94
:1014D000002000023F06080E00080009000A000B69
:1014E00024282C3034000000100000009000000080
:1014F00088000000080000008000000004F00000E8
:1015000000F00000400200002005A000D001000112
:101510008001A00140019001B001200010000000F6
:1015200003000000010000000100000000000000B6
:10153000050360000400000001000000000000003E
:10154000010000000604600008000000F00500082B
:10155000D90E001000000000F4FCFF7F0100000025
:101560000000001000000008C000000080150010FE
:10157000C0000008F8020000F80300081C02000088
:1015800000093D0000127A0000093D000000D0076C
:10159000A00F000004000000E9000010C1000010CE
:1015A00080B230B5C00020D0104B07221C68230049
:1015B000BA331B885A43236AD31819680029FCDA06
:1015C0003E210B4B062519600A4B0B491960A321DC
:1015D0000A4BC9005D500A4958505858206A1218E1
:1015E000002050605A58002AFCDA30BD100600086E
:1015F00004012640080126401E1F0000000026406E
:101600001C05000010B54378FF2B11D100F024F920
:101610000400032000F0E8F8C3685A680123116849
:101620001943116011681942FCD1200000F0FCF848
:1016300010BDF7B500900020019100F0D5F83F4DA6
:1016400006002B681A005033BC3214681B7804194A
:10165000002B5AD000F0F0F8070003281BD000F050
:10166000FBF8374A374B0500D358002B3EDA364A91
:101670000121300000F0F8F8002837D10198FFF779
:101680008FFF009B002B3ED02368002BFCDB00F07B
:10169000B3F804002BE0062000F0A6F82B68BC335A
:1016A0001B68C0180368002B02DA284C2000FEBD1E
:1016B000002000F0A9F8264B9842F6D00023254AD6
:1016C00019001268012000F0A7F80025A842ECD10B
:1016D000002000F099F81E4A1F4B904203D09D4213
:1016E000E3D00135F4E79D42B9D1DEE7174C032F73
:1016F00005D10121002000F0A7F80028F9D1280029
:1017000000F092F8D2E7154CF1E700F0A5F80E4A88
:1017100005000121300000F0A7F8002809D1009B46
:10172000002B08D02368002BFCDB00F065F80400D8
:10173000E5E7064CE3E7094CE1E7C0461006000880
:10174000000026401C05000014040008050052009B
:101750000101880024040008F04902000100500043
:10176000184BF7B51B68184A5C68042311690B43D2
:101770001361012824D030BF2300FC331B69002BE8
:101780001DD1A320114B1249124AC0000F681E58E8
:1017900015680195104D0D6006251D503E20106006
:1017A0000E483E351D501D58002DFCDA0C48FC3407
:1017B00020610F60A321C9005E50019B1360F7BD3B
:1017C00020BFD9E71006000800ED00E00000264029
:1017D00008012640040126401E1F00001C050000D1
:1017E000AAAAAAAA0000000001B40248844601BCCB
:1017F000604700BFB501001001B40248844601BC37
:10180000604700BF7902001001B40248844601BC61
:10181000604700BFA506001001B40248844601BC21
:10182000604700BF4D04001001B40248844601BC6B
:10183000604700BF2301001001B40248844601BC88
:10184000604700BF0910001001B40248844601BC83
:10185000604700BF3106001001B40248844601BC55
:10186000604700BF1B01001001B40248844601BC60
:10187000604700BF310300100000000000000000BE
:101880000000000000000000000000000000000058
:041890000000000054
:1020000000780408811901100D000000F519011075
:10201000F5190110F5190110F51901100000000063
:10202000000000000000000000000000F119011095
:10203000F119011000000000F1190110F11901104F
:10204000F1190110F1190110F1190110F119011024
:10205000F1190110F1190110F1190110F119011014
:10206000F1190110F1190110F1190110F119011004
:10207000F1190110F1190110F1190110F1190110F4
:10228000F1190110F1190110F119011010B5054CE7
:10229000237833B9044B13B10448AFF30080012312
:1022A000237010BDD058000800000000E442051063
:1022B00008B5034B1BB103490348AFF3008008BDC9
:1022C00000000000D4580008E442051008B500F0F2
:1022D000E5F800F007F800F0D3F800F029F800F076
:1022E0003DF808BD08B5002108461AF029FDFF2277
:1022F000002108461AF0A2FB002108461AF0E2FC71
:10230000094815F095F9012100201AF019FD012264
:10231000114600201AF092FB012100201AF0D2FC95
:10232000024815F085F908BDE8C10210ECC10210A1
:1023300008B5084815F07CF90022114633201AF040
:1023400089FC0122002103201AF084FC024815F0C8
:102350006FF908BDF0C10210F4C1021010B52E4C87
:102360002E4A0021204618F039FF2D4815F060F95B
:102370002C4A0121204618F031FF2B4815F058F95E
:102380002A4815F055F904F54074294A00212046E1
:1023900018F024FF274815F04BF9274A0121204661
:1023A00018F01CFF254815F043F9254A0421204662
:1023B00018F014FF234815F03BF9234A0621204664
:1023C00018F00CFF214815F033F9214A0721204667
:1023D00018F004FF1F4815F02BF91F4815F028F9D5
:1023E0001E4815F025F91E4815F022F91D4815F074
:1023F0001FF91D4815F01CF91C4815F019F91C4867
:1024000015F016F91B4815F013F91B4815F010F9D3
:102410001A4815F00DF910BD000032403CC30210FF
:1024200070C3021074C30210A8C3021020C20210AD
:1024300024C2021058C202105CC2021090C20210E4
:1024400004C3021038C30210CCC2021000C3021031
:1024500094C20210C8C20210F8C10210FCC10210DE
:1024600000C2021004C2021008C202100CC2021004
:1024700010C2021014C2021018C202101CC20210B4
:10248000044B332242F208015A5042F210015A50D2
:10249000704700BF00003140FEE7000030B583B058
:1024A000962100201CF06AF91CF0FAF8F8B101201E
:1024B0001CF0EEFD1CF096FD1CF06EFE1CF058FEAC
:1024C000002108461AF04CFE00201AF0B7FD01204A
:1024D0001AF09CFD00201AF0AFFC654B1B6893F8C6
:1024E0003F4074B120461BF033FB013CF9E71CF080
:1024F000C7F81AF0E9FE1AF0D5FE01201AF0F8FE2E
:10250000D5E7002101201AF06BFF00201AF016FE1B
:10251000002800F08C801BF017F8002108461AF004
:102520005FFF002108461AF0E9FD17F0EFFF514D5B
:1025300000240094234622462146284618F076FDC2
:102540000094234622460121284618F06FFD4A4890
:102550001AF040FE002876D101201AF03FFD00203D
:102560001AF06CFD00201AF051FD00201AF064FCF6
:10257000002101201AF034FF002108461AF030FF34
:10258000002102201AF02CFF002103201AF028FF5E
:10259000002104201AF024FF38481AF0EFFF002829
:1025A00055D137481BF064FA002854D10021084661
:1025B0001AF0A4FD002108461AF0D2FD314901208D
:1025C0001BF0ECFA00284AD142F2107101201BF0F6
:1025D0007FFC002847D11AF0F7FC00201AF0AEFC6F
:1025E00000201AF0CBFC1AF0DDFC00201CF0DEFD10
:1025F00000201AF08BFC1AF055FE01201AF078FE2C
:10260000642100201CF0BAF80FF018FA1E4815F0EB
:102610000FF81E4815F00CF81D4815F009F81D4874
:1026200015F006F81C4815F003F803B030BD1AF099
:1026300005FF40F2111398427FF46DAF0121002095
:102640001AF05CFD67E70520FFF726FF84E704200A
:10265000FFF722FFA5E70420FFF71EFFA6E70320F0
:10266000FFF71AFFB0E70320FFF716FFB3E700BF3D
:10267000C82402080000324040420F00ACC30210E0
:10268000400D0300D4C30210C0C30210C4C3021023
:10269000C8C30210CCC30210D0C3021001BE7047E1
:1026A000F0B400230C7A9C420FD9CC68E618E55CA4
:1026B0007678864204D02B44DBB20133DBB2F1E7FB
:1026C000981C20446B1E137000E00020F0BC704783
:1026D00000B585B00B4B01221A700B4A1288ADF879
:1026E0000C20ADF8080000930223ADF804306846D2
:1026F0006DF04AFB10B905B05DF804FBFFF7CEFFA3
:10270000F9E700BF24590008D8DC000845F212039D
:10271000984200F2758170B58CB00C46B0F5A04FB0
:1027200018D9A0F5A0400138112850D8DFE810F0E2
:10273000A500BE004F00E9004F004F0008014F0008
:102740004F004F004F004F00DC004F004F004F0084
:102750004F00E000B0F5804F3BD01AD944F2070398
:1027600098427AD044F20B03984230D1A54B1B78A3
:102770006BBBA54A127852B3A34A00211170052BF6
:102780004ED8A24A5268D15CA14AD1540133DBB27F
:10279000F5E7B0F5805F12D042F21603984216D1E9
:1027A0009C4827F0C9FD9C4B1B88ADF820304FF4A6
:1027B0000073ADF8223008A86DF06EFA07E0974973
:1027C000974827F033FD0021084611F0C5FA0CB0F8
:1027D00070BD8E4E35460FCC0FC523682B6000238D
:1027E0008DF820303378042BF1D108AA3146092026
:1027F000FFF756FF80B19DF82020002181548749C2
:1028000027F0F6FDB0FA80F040097F4A10700028EA
:10281000DDD011F00BFBDAE77B4B00221A70D6E714
:10282000804827F003FD06243CB1013C784B195D3C
:102830007D4827F0FBFCE4B2F6E7744B5B78744804
:102840008371002111F016FC01460028BFD07748A3
:1028500027F0ECFCFFF722FFB9E700238DF82130C9
:102860006D4B1B788DF8203002238DF823308DF8C6
:10287000223008A86BF0F2FBA9E7674D0B882B808C
:102880006B4B1B68986900220521803018F02CFCE6
:10289000684827F051FD2B88ADF820304FF40073C5
:1028A000ADF8223008A86DF0F7F990E75A4B1A7886
:1028B0000B789A4210D05E4B1B6898690122052163
:1028C000803018F011FC5549554827F0AFFC002125
:1028D000084611F041FA7AE7574827F02DFD4E4B94
:1028E000FF221A705A70E6E7544827F025FD6EE77C
:1028F000534D0FC985E80F000178524827F096FC28
:1029000065E7514827F018FD434B1B88ADF824308C
:102910000123ADF820304FF6FF73ADF82230618807
:102920004A4827F083FC08A86DF04AF9014618B917
:10293000474827F07BFC4AE7464827F077FC46E704
:10294000454827F0F9FC01AB94E8070083E807004D
:10295000424B04AC0FCB84E80F00414B1B783BB9D2
:10296000019C10220DEB0201A01C26F0A1FD68B312
:102970003C4B0FCB0CAC04E90F003B4B1B7833B93D
:10298000019C102208A9A01C26F092FD58B39DF8C6
:102990000E30012B7FF41BAF42F60213ADF800306E
:1029A000019C02226946A01826F082FD00287FF4CF
:1029B0000EAF2178637841EA03212C4C21802C480A
:1029C00027F034FC2088FFF783FE00E7244B012228
:1029D0001A702178637841EA0321264B1980264832
:1029E00027F024FCC4E7204B01221A702178637879
:1029F00041EA0321214B1980214827F017FCC6E743
:102A0000704700BF20D801082F590008105900084E
:102A10002859000820C60210D8DC00085CC8021043
:102A2000A4C50210D8C50210F8C50210FCC50210DA
:102A3000C824020840C6021058C6021068C6021018
:102A4000DCDC0008A0C60210ACC60210DCC6021016
:102A5000F8C6021028C7021064C702102CC8021062
:102A60008070000840C802108C70000826590008C9
:102A7000F8C702108870000898C702108A70000812
:102A8000C8C7021008B511F08DFE08BD10B582B0A0
:102A90000F4A6B4692E8030083E803000D4C626B1B
:102AA00013600D4918461BF08FFD0C480FF016FA05
:102AB00020460FF054F820B90FF055F820B902B0B5
:102AC00010BDFFF7EBFDF7E7FFF7E8FDF7E700BF05
:102AD00054C80210DCC30210852A00100D27001014
:102AE00008B565F05BFC08BD10B407EE101A13467C
:102AF00042685B680488418801FB04F139B1F2EC5B
:102B0000017A67EE877AE3EC017A0139F6E7002073
:102B10005DF8044B7047F0B44368D1F804C00588F1
:102B200047882C4600260AE053F8040B086001EBA6
:102B30008401013A002AF7D10136013D03D00CEBA4
:102B400086013A46F6E70020F0BC704730B4B0EC9E
:102B5000017A4C1E002500E0013C54B1F0EC017AF2
:102B6000B4EEE77AF1EE10FAF6D50D1BB0EE677A07
:102B7000F2E782ED007A1D6030BC704730B4B0ECF3
:102B8000017A4C1E002500E0013C54B1F0EC017AC2
:102B9000B4EEE77AF1EE10FAF6DD0D1BB0EE677ACF
:102BA000F2E782ED007A1D6030BC704710B582B04C
:102BB000019114460B469FED107A3BB1F0EC017A7F
:102BC00067EEA77A37EE277A013BF6E7DDED017A6B
:102BD000F8EE677AC7EE276AF5EEC06AF1EE10FAF2
:102BE00006DB16EE900A22F02FFD206002B010BD29
:102BF00000232360FAE700BF000000006AB130F94B
:102C0000023B07EE903AF8EEE77A9FED047A67EE22
:102C1000877AE1EC017A013AF0E77047000000386A
:102C2000F0B40025A9421AD932F81540A4086B1C4B
:102C300032F813309B0850F8246050F8237040F8A5
:102C4000247040F82360013450F82460013350F8B8
:102C5000237040F8247040F823600235E2E7F0BCAE
:102C600070472DE9F8432DED028B80460846B8F8F1
:102C7000007001EB8709D8F804604FEA570C01EBAC
:102C80008C0509EB8C04FF084A460B46002F00F028
:102C90009F8093ED005A93ED016A93ED021A93ED34
:102CA000037A92ED000AD2ED010A92ED023AD2EDDA
:102CB000031A95ED002AD5ED012A95ED024AD5EDCE
:102CC000034AD4ED005AD4ED016AD4ED023AD4EDB2
:102CD000037A35EE008A83ED008A36EE208A83ED92
:102CE000018A31EE038A83ED028A37EE218A83ED71
:102CF000038A35EE405A36EE606A31EE433A37EEDB
:102D0000617A72EE251AC5ED001A72EEA61AC5EDAB
:102D1000011A74EE231AC5ED021A74EEA71AC5ED56
:102D2000031A75EEC25A76EEE26A73EEC42A77EEA3
:102D3000E47AD6ED004A96ED014A65EE243A26EE95
:102D4000042A26EE246A25EE045A73EE823AC2ED76
:102D5000003A36EE456A82ED016A25EE846A26EE77
:102D6000A45A66EE846A65EEA45A36EE456A84ED8E
:102D7000006A76EEA56AC4ED016AD6ED026A96EDA8
:102D8000036A23EE265A67EE064A27EE267A63EE9A
:102D9000065A35EE245A82ED025A37EE657A82EDF4
:102DA000037A62EE865A27EEA65A67EE867A22EEFC
:102DB000A67A75EEC56AC4ED026A77EE877AC4ED2D
:102DC000037A013F103610321034103510335DE7AE
:102DD0001FFA8CF40223D8F80420214600F032FBBD
:102DE0000223D8F804202146484600F02BFBBDEC16
:102DF000028BBDE8F8832DE9F04F2DED048B89B0EF
:102E0000054606900E46079103885B0801EB830296
:102E1000039201EBC30404EB83000490A2F1040EBF
:102E2000A446041F04EB83016D685F08059796EDC7
:102E3000007AACF10408DCED007A37EE272A37EE91
:102E4000677AD6ED017ACDF808C0DCED016A77EE3D
:102E5000A62A77EEE67A92ED013A73EE073AD0EDC4
:102E6000015A73EEE53A92ED006A37EEC64AD0EDAC
:102E7000006A34EE264A72EE464A74EEE64A32EEB4
:102E8000C35A35EE655A37EE437A35EE877A76EED9
:102E9000277A77EEE67A36EE026A76EE866A06F1F1
:102EA000080CC6ED006AD2ED016A76EEA26A03460E
:102EB00090ED016A76EE866AC6ED016A1046083228
:102EC000C0ED003A80ED014A029E30460830C6ED62
:102ED000004A86ED015A1E46083386ED007AC6ED9B
:102EE000017A05F1080A05F110061835A7F1020B61
:102EF0004FEA5B0BBBF1000F00F00C819CED007AF8
:102F0000D0ED007A77EE273A37EE677ADCED017A7A
:102F1000D0ED016A37EEA64A77EEE67AD2ED014AA5
:102F200074EE870AD3ED011A70EEE10A92ED005AB1
:102F300077EEC56A93ED006A76EE866A33EEC51ABF
:102F400031EE461A74EE645A75EEE15A37EE647A41
:102F500071EE871A75EE277A77EEC67A35EE235A28
:102F600036EE056A674608378CED006A019792EDE8
:102F7000017A37EE047A93ED016A37EE067A8CED2A
:102F8000017A1EED010A14ED017A70EE078A30EE27
:102F9000470ADEED002A94ED007A32EE874A72EE9F
:102FA000C72A98ED003AD1ED003A33EE639A39EE34
:102FB000005A18ED018A72EEC84A11ED012A74EE2A
:102FC000824A38EEC86A36EE426A34EE437A37EE09
:102FD000637A39EE400A32EE482A72EE622A33EE04
:102FE000043A73EE833AAEF10807CEED003A18EDDD
:102FF000014A34EE284A51ED013A34EE234A0EEDEF
:10300000014A0AF108099AED004ADAED013A20EE88
:10301000843A26EEA32A66EE846A60EEA30A33EEB3
:10302000023A02F1080A82ED003A76EEE06AC2ED59
:10303000016A64EEA36A25EE043A25EE235A64EE93
:10304000844A76EEC36AA8F1080CC8ED006A35EE32
:10305000245A08ED015A96ED005AD6ED016A103651
:1030600061EE054A25EEA64A65EE855A21EE261A3E
:1030700074EE844A02460832C0ED004A75EEC15A29
:10308000C0ED015A67EE455A66EE264A26EE056AFD
:1030900067EE266A35EEE47AA4F1080E84ED007A34
:1030A00076EEC66A44ED016A95ED002A95ED016A57
:1030B000183561EE825A27EE865A67EE826A21EE53
:1030C000867A75EE857A18460830C3ED007A36EEBA
:1030D000C77A83ED017A22EE867A60EE026A60EEAC
:1030E000067A62EE822A37EE667AA1F1080481ED53
:1030F000007A77EEA27A41ED017A0BF1FF3B0346AD
:1031000010465246CA4621467446E046BE46DDF8A1
:1031100004C0EFE69CED006AD0ED007A36EE272A77
:1031200036EE676ADCED017A90ED017A77EE872A58
:1031300077EEC77A92ED013A33EE065AD3ED013AB3
:1031400035EE635A92ED004A77EEC46AD3ED004A39
:1031500076EEA46A72EE445A75EEE45A32EEC37A01
:1031600037EE637A36EE436A33EE866A74EE277A78
:1031700077EEE47A34EE024A74EE844ACCED004AEB
:10318000D2ED014A74EEA24A93ED014A74EE844AEC
:10319000CCED014ADAED003A9AED014A65EE234A98
:1031A00026EE843A66EEA36A25EE045A74EE834A4C
:1031B000C2ED004A76EEC56AC2ED016AD6ED004A5C
:1031C00096ED015A65EEA46A27EE054A27EE247AA9
:1031D00065EE855A76EE846AC0ED006A37EE657A50
:1031E00080ED017AD5ED005AD5ED016A26EE257AFB
:1031F00027EEA65A67EEA57A26EE266A37EE057AFE
:1032000083ED007A77EEC67AC3ED017ABDF81440FB
:103210000423069D6A682146079800F013F90423E9
:103220006A682146039800F00DF904236A68214674
:10323000029800F007F904236A682146049800F018
:1032400001F909B0BDEC048BBDE8F08F2DE9F04722
:1032500080460C4691469A4605882F46012A10D092
:10326000B5F5807F1FD023D8402D28D017D9802DC9
:1032700033D0BAF1000F35D1B9F1010F3AD0BDE822
:10328000F0870E1D0021B942EAD2D6ED007AF1EEA8
:10329000677A33460836C3ED007A0131F3E7102D23
:1032A0001BD0202DE5D121464046FFF7A4FDE0E7E5
:1032B000B5F5006FF7D00AD9B5F5805FD9D10123F4
:1032C000D8F804202946204600F0BCF8D1E7B5F52F
:1032D000007FF4D0B5F5806FCBD121464046FFF793
:1032E000C0FCC6E7D8F80820B8F80C102046FFF755
:1032F00097FCC1E707EE905AF8EE677AF7EE006A9E
:1033000086EEA77A00230DE0D4ED007A67EE877A87
:10331000C4ED007AD4ED017A67EEC77AC4ED017A84
:1033200008340133BB42EFD3A9E70000018000233A
:103330004360B1F5807F55D00FD9B1F5006F3FD014
:103340002CD9B1F5805F68D1354B9A8982819A6812
:1033500082605B6843600020704740294BD00AD9E7
:10336000802918D12F4B9A8982819A6882605B6884
:10337000436000207047102946D0202908D12A4BED
:103380009A8982819A6882605B68436000207047F6
:103390004FF0FF3070474FF0FF307047B1F5007FBE
:1033A00017D0B1F5806F08D1204B9A8982819A6835
:1033B00082605B684360002070474FF0FF307047C9
:1033C0001B4B9A8982819A6882605B684360002007
:1033D0007047184B9A8982819A6882605B68436063
:1033E00000207047144B9A8982819A6882605B68DA
:1033F000436000207047114B9A8982819A688260ED
:103400005B684360002070470D4B9A8982819A68FF
:1034100082605B684360002070474FF0FF30704768
:103420009C9C04104C9C04108C9C04103C9C04102C
:103430006C9C0410AC9C04107C9C0410BC9C04107C
:103440005C9C04102DE9F04F2DED0E8B8DB0814664
:1034500008920B9307910691069B4FEAD30A4FF00F
:10346000000E0EEB0A010EEB4A030AEB030503EB19
:103470004A020AEB020602EB4A070AEB070B4FEA85
:10348000CE0809EBCE0090ED007A4FEAC20C09EBB2
:10349000C202D2ED007A77EE276A37EE677ACC0067
:1034A000019409EBC1010291D1ED005AF10009EB41
:1034B000C6060396D6ED007A35EEA76A75EEE75A92
:1034C000DE0009EBC30393ED005AFC00049409EB02
:1034D000C707D7ED007A75EE274A75EE677AEC00DC
:1034E000059409EBC5050995D5ED003A4FEACB04E3
:1034F0000A9409EBCB0B9BED004A33EE845A73EE32
:10350000C43A76EEE40A76EEA46A36EE451A36EE52
:10351000056A36EE865A80ED005A76EEC66AC2ED2E
:10352000006A08F10408C84498ED006A0CF1040C24
:10353000CC44DCED006A36EE265A76EE664A019CF3
:1035400004344C4494ED006A04314944D1ED006ADE
:1035500036EE263A36EE666A04364E4496ED004A5A
:10356000049A151D4D44D5ED006A34EE262A34EE3A
:10357000664A059A04324A44D2ED006A0A98043039
:103580004844D0ED002A76EEA21A76EEE26A75EE95
:10359000422A35EE025A33EE612A33EE213A75EEB5
:1035A000031AC8ED001A35EE435A8CED005A30EE7E
:1035B000825A83ED005A30EEC23A87ED003A32EE7D
:1035C000C15A86ED005A31EE225A85ED005A35EE89
:1035D000E35ADFEDF22A25EE225A75EEA35A65EE84
:1035E000A25A36EE663A23EE223A36EE266A66EEA6
:1035F000226A77EE453A37EE057A37EEE55A77EEEE
:10360000A57A74EEC35A34EE836A74EE664A74EE99
:10361000266A37EE264A029B83ED004A37EE667A29
:103620008BED007A33EEA47A039E86ED007A73EE7A
:10363000E43A099DC5ED003A36EE677A84ED007AEA
:1036400077EE867AC0ED007A75EEC57AC1ED007A24
:1036500035EE255A82ED005A069B9E44079B734522
:103660003FF6FFAEBAF1070F40F2BC8101230A9387
:1036700000230993D046099C0B9B1C4404EB440295
:1036800004EB8403E71803EB4406E500089800EB1D
:10369000C401D1ED008A09942401844609980CEBF9
:1036A000001191ED008A4FEAC20C089901EBC202A9
:1036B00092ED000A4101089A02EB4012D2ED000A95
:1036C000DA00089800EBC30393ED001AFB0000EB4F
:1036D000C707D7ED001AF70000EBC60696ED002AE3
:1036E000043506460544D5ED002A0434044494ED1F
:1036F000003A0CF104003044D0ED003A043131447A
:1037000091ED004A04323244D2ED004A043333448E
:1037100093ED005A04373744D7ED005A0A9B9A4676
:103720000AEB08000AEB480308EB030403EB48022A
:1037300008EB020602EB480108EB010B4FEACA0E48
:1037400009EBCA0595ED009A4FEAC20C09EBC202DB
:10375000D2ED007A79EE276A39EE67AAC7000197A1
:1037600009EBC000029090ED006AF00009EBC6067C
:103770000396D6ED007A36EE277A36EE67CADF007A
:1037800009EBC30393ED006ACE0009EBC10104917C
:10379000D1ED007A76EE279A76EE677AE10009EBB2
:1037A000C4040594D4ED00AA4FEACB0409EBCB0B7B
:1037B0009BED006A3AEE869A3AEEC66A36EEE9DA90
:1037C00076EEA96A37EE49EA37EE097A36EE879A3D
:1037D00085ED009A76EEC7EA0EF1040ECE449EED1A
:1037E00000BA0CF1040CCC44DCED006A3BEE267A06
:1037F0003BEE66BA019D04354D44D5ED00BA043068
:103800004844D0ED006A7BEEA6CA7BEEE6BA0437E8
:103810004F44D7ED00AA04364E44D6ED006A7AEE46
:10382000A69A7AEEE6AA0431494491ED009A04344E
:103830004C44D4ED006A79EE26DA79EE666A37EE0A
:10384000699A37EE297A7CEEED9A7CEEADCA7DEE70
:1038500029DA3DEE69DA77EE2C9ACEED009A37EE52
:103860006C7A79EE4E9A3EEE099A60EEAECA24EE7C
:1038700007EA20EE877A64EE2EEA7CEE8ECAC2ED6D
:1038800000CA37EE6E7A8CED007A28EE2D7A63EE60
:1038900029CA68EE299A63EE2DDA37EE2C7A83ED89
:1038A000007A79EEED9AC7ED009A21EE8D7A65EEF9
:1038B000099A21EE899A25EE0DDA37EE297A049BD2
:1038C00083ED007A39EE4D9A86ED009A3CEE469AE9
:1038D0009FED327A29EE079A3CEE066A26EE076AD9
:1038E0003BEEE6CA2CEE07CA7BEEA66A66EE876A56
:1038F0007AEE499A3AEE099A77EEC6BA77EE867A68
:103900007BEE4CCA3BEE0C6A3AEEE6AA7AEEA66A69
:1039100039EE26BA39EE667A79EE8AAA79EECA9A33
:1039200076EE676A77EE867A3CEEEBAA3BEEAC9ACF
:1039300028EE8B6A62EEA6BA68EEA66A22EE8BBA11
:1039400036EE2B6A029F87ED006A76EECB6AC5EDF4
:10395000006A62EE076A25EEA7BA62EE277A25EEC4
:10396000876A36EE8B7A8BED007A77EEC67AC4EDF5
:10397000007A61EE2A7A24EE8A6A21EE0A7A64EEEF
:10398000AA6A77EE867A039EC6ED007A37EE667AEB
:1039900080ED007A60EE296A02E000BFF304353F53
:1039A00023EE896A60EE097A23EEA97A76EE866ABA
:1039B000059CC4ED006A77EEC77AC1ED007A069BDC
:1039C0009A44079B53453FF6ABAE0A9B01330A93DB
:1039D00098453FF650AE0B9BDB009BB20B93CDF8A6
:1039E000188039E50DB0BDEC0E8BBDE8F08F00BF3F
:1039F00030B443690488013CD1ED007A91ED017A3D
:103A000003F1080077EEA77A37EE077A77EE876A38
:103A1000B6EE006A66EE866A13460833C2ED006AA7
:103A200077EEC77A67EE867AC2ED017A01EBC405BC
:103A3000083195ED015A2A46083D92ED007AD1ED04
:103A4000004AD1ED017AD0ED006AD0ED015A08307C
:103A500037EE646A35EE274A66EE863A25EE866AC8
:103A600066EE846A65EE845A37EE247A37EE237A5E
:103A700037EE257AF6EE005A27EE257A83ED007AA6
:103A800077EEC57A77EE867A77EEE67A1A460833CD
:103A900067EEA57AC2ED017A0831013CC9D130BC8C
:103AA000704770B4456900880138D1ED007A91ED16
:103AB000016A083537EE867AF6EE006A27EE267A36
:103AC0001446083482ED007A77EEC67A67EEA67A5D
:103AD000C2ED017A01EBC0060831C0B396ED015A80
:103AE0003346083E93ED007AD1ED005AD1ED017ACC
:103AF0002A460832D5ED006A95ED016A35EEC74ACF
:103B000075EE274A26EE843A66EE243A26EE046ADB
:103B100066EEA46A37EE257A37EE437A37EE637A9B
:103B2000F6EE005A27EE257A2346083384ED007A14
:103B300077EEC57A77EE867A77EEE67A67EEA57A43
:103B4000C4ED017A0831013815461C46C5E770BC42
:103B50007047F8B504460D4616461F4643B1FFF7B9
:103B6000A0FF01233A4631462046FFF76FFBF8BD20
:103B700001233A46FFF76AFB324629462046FFF703
:103B800037FFF4E750B110B504461021FFF7CEFB24
:103B900018B920232382034B636110BD4FF0FF301F
:103BA000704700BFBC52041050B110B5044620212C
:103BB000FFF7BCFB18B940232382034B636110BDA0
:103BC0004FF0FF30704700BF3C9B041050B110B560
:103BD00004464021FFF7AAFB18B980232382034B38
:103BE000636110BD4FF0FF30704700BFBC2C041064
:103BF00058B110B504468021FFF798FB20B94FF467
:103C000080732382024B636110BD4FF0FF30704719
:103C1000BC4E041060B110B504464FF48071FFF73C
:103C200085FB20B94FF400732382034B636110BD01
:103C30004FF0FF30704700BF3C93041060B110B5E7
:103C400004464FF40071FFF771FB20B94FF4806315
:103C50002382034B636110BD4FF0FF30704700BFFC
:103C6000BC1C041060B110B504464FF48061FFF72E
:103C70005DFB20B94FF400632382034B636110BDE9
:103C80004FF0FF30704700BFBC2E041060B110B57C
:103C900004464FF40061FFF749FB20B94FF480530D
:103CA0002382034B636110BD4FF0FF30704700BFAC
:103CB0003C53041008B5B1F5007F23D013D88029F8
:103CC00022D004D9B1F5807F0AD1154B17E0202905
:103CD0001CD0402901D1134B11E04FF0FF3010E010
:103CE0004FF0FF300DE0B1F5006F11D0B1F5805FFE
:103CF00001D10D4B03E0B1F5806F0BD10B4B63B1DC
:103D0000984708BD0A4BFAE70A4BF8E70A4BF6E773
:103D10000A4BF4E74FF0FF30F3E74FF0FF30F0E7E6
:103D2000F13B0010A93B00108D3C00103D3C001001
:103D3000153C0010CD3B0010853B0010653C001089
:103D400080B130B4054604688C4211D100239C42F6
:103D50000CDD05EB8301486852F8231088420AD134
:103D60000133F4E7B1FA81F040097047012000E027
:103D7000002030BC70470020FBE7884208D048B1E3
:103D800051B108B50A4652F8041BFFF7D9FF08BD28
:103D90000120704700207047002070470B281DD875
:103DA000DFE800F0061E0A0C10161208140E181A8E
:103DB0000C4870470C4870470C4870470C487047D7
:103DC0000C4870470C4870470C4870470C487047C7
:103DD0000C4870470C4870470C4870470C487047B7
:103DE0000C487047389D0410E49C0410EC9C0410AF
:103DF000F49C0410FC9C0410049D04100C9D041001
:103E0000149D0410209D0410289D0410309D041062
:103E1000CC9C0410DC9C041000B587B000230493F4
:103E20000393082202920193FF23009362236122ED
:103E300060210C4814F03EFE78B10A490A4811F09E
:103E40001BF8142011F014F811F00EF8074B18604D
:103E50001CF0C2F807B05DF804FB0549014814F0F6
:103E6000F7FCEAE7F0DC0008409D0410ECDC0008F9
:103E7000002D310170B5064600201CF01BF81248D9
:103E80001BF0EAFF4FF0FF301BF0DEFF4FF07F40EA
:103E90001BF0DEFF02201CF003F81CF06FF81DF091
:103EA00043FE04461DF04AFE00EBD0756D101BF07A
:103EB00057FF00EBD07004EBD474A5EB60026110E7
:103EC00030461CF041FA70BD00F0041008B5012323
:103ED0001A4603490968034810F0F2FF08BD00BF05
:103EE000ECDC00083059000810B5074A1468074B8D
:103EF000196811601C60064B01221A704FF47A5247
:103F000014F006F910BD00BF7C7000088470000832
:103F10008170000838B5124C1249204612F0C4F8DE
:103F2000204612F0FFF800220F49204612F060FBF5
:103F300001221146204612F07DF90C4D0C4928460D
:103F400012F0B2F8284612F0EDF82146284612F099
:103F50008FFD01221146284612F06CF938BD00BFD2
:103F6000F85A010830D4041000007701005B010802
:103F700023D4041010B582B0144B00221A70FFF73E
:103F8000C9FF134C134B0093134B54225521204669
:103F900013F0EEFD22461149204614F079F9012371
:103FA00007221021204614F07FF9204613F096FDD9
:103FB0000B490C4B19600C4B0C4A1A604FF47A52A7
:103FC000204614F0A5F802B010BD00BF81700008B3
:103FD000585A01084C9D0410005B0108E93E00108E
:103FE00058DD00087C70000884700008085B010838
:103FF000FEE70000000000002DE9F04F2DED028BE0
:104000008BB081460D464C0804F1010A8E00012157
:104010004FEACA0000F0EEFE002800F0BB808346A5
:104020000121304600F0E6FE804680B100239C422C
:1040300013D908EB830209EBC30108681060EA1A80
:10404000013A08EB8202496811600133EFE75846F4
:1040500000F0D4FE544B039396E015F0010F08D006
:1040600008EB840405F18043013B09EB83031B68E3
:1040700023606B0801339A4576D1B8F1000F05D063
:10408000CDF8188000238DF8243007E00121A80026
:1040900000F0B0FE069001238DF82430069C002C21
:1040A0005BD0B8F1000F4FD005AB009300231A4648
:1040B0001946284600F0F0FC064600284AD05A4629
:1040C000214600F0B3FD304600F098FE0023039334
:1040D0001CB19DF82430002B42D1039B002B46D10C
:1040E0000024A2454AD9204624F0FEFA2CA3D3E9A5
:1040F000002324F073FB06460F46680024F0F4FA10
:1041000002460B463046394624F092FC24F05EFE0F
:1041100006460BEBC40797ED008A21F07FF807EE07
:10412000900A28EE278AD7ED018A304621F026F939
:1041300007EE900A68EEA78A09EB840338EE288A16
:1041400083ED008A0134CCE7AA004146204625F0E1
:10415000BDF9A9E7144B0393BAE7134B0393B7E7F1
:10416000204600F04BFEB8E7104B0393B5E74046FE
:1041700000F044FE584600F041FE05E0404600F0E5
:104180003DFE584600F03AFE03980BB0BDEC028BA2
:10419000BDE8F08F044B0393F6E700BFAFF3008058
:1041A000182D4454FB21094016FCFFFF11FCFFFFB2
:1041B00010B402F5847200EBC30494ED007A92ED22
:1041C000006A67EE066AD4ED017AD2ED015A27EE55
:1041D000A55A76EEC56A27EE257A66EE277A77EE3F
:1041E000277A02EBC10290ED007A37EE667A84ED11
:1041F000007A90ED017A37EE677A84ED017A90EDDE
:10420000007A77EE266AC0ED006A90ED017A77EECB
:10421000277AC0ED017A08340830013BCDD15DF832
:10422000044B70472DE9F04102F584779846BE466D
:10423000BC4614E034EEE77A85ED007A35EEA67AD6
:1042400085ED017A74EEA77AC4ED007A75EEE66A20
:10425000C4ED016A0830B8F1010800F08F8000EB6E
:10426000C30595ED007A97ED006A27EE065AD5ED65
:10427000015AD7ED017A65EEA76A35EE665A67EE08
:10428000277A26EE256A77EE867A00EB031696EDFE
:10429000006ADCED005A26EE257AD6ED016ADCEDE7
:1042A000014A26EEA44A37EE447A26EE246A65EEE9
:1042B000A66A76EE266A03EB430400EBC404D4ED51
:1042C000005ADEED004A25EEA44A94ED016ADEEDC7
:1042D000013A26EE233A34EE434A65EEA35A24EE21
:1042E000866A35EE866A90ED003A73EE474AD0ED65
:1042F000013A73EEE65A37EE037A80ED007A76EEF5
:10430000A36AC0ED016A35EE043A77EE863A75EE9F
:10431000446A77EEC67A37EE437A86ED007A90EDFE
:10432000015A35EE635A86ED015A07EBC1070CEBD3
:10433000011C01EB41060EEBC60E90ED006A36EE55
:10434000036A80ED006A90ED017A37EE237A80ED02
:10435000017A5668002E7FF46DAF34EEA77A85EDB2
:10436000007A35EEE67A85ED017A74EEE77AC4EDEF
:10437000007A75EEA66AC4ED016A6BE7BDE8F081CC
:104380002DE9F04F2DED048B85B0054689469B46FF
:1043900001FB03F3213302EBC30393E8030004ABF7
:1043A00003E9030002F58477BA46D84605EBCB044F
:1043B00094ED007A97ED006A67EE066AD4ED017A13
:1043C000D7ED015A27EEA55A76EEC56A27EE257A73
:1043D00066EE277A77EE277A05EB0B1696ED006AE4
:1043E000DAED005A26EE257A96ED015A9AED018A09
:1043F00065EE088A37EE687A26EE088A65EE855AF9
:1044000038EE258A76EE879A37EE889A76EEC78A56
:1044100037EEC88A07EBC9070AEB091A286824F0A7
:1044200085F9CDE9000119EE900A24F07FF9002208
:104430002A4B24F0D3F902460B46DDE9000124F0B3
:1044400015F824F0C3FC2060686824F06FF9CDE90A
:10445000000119EE100A24F069F900221F4B24F024
:10446000BDF902460B46DDE9000123F0FFFF24F011
:10447000ADFC6060DDED037A28EEA77A68EE277A5E
:10448000D5ED006A76EEA96AC5ED006AD5ED016A40
:1044900076EE896AC5ED016AD4ED006A77EEA66A08
:1044A000C6ED006AD4ED016A76EEC76AC6ED016A10
:1044B000D4ED006A76EEE77AC4ED007AD4ED017AA5
:1044C00037EE877A84ED017A0835B8F101087FF478
:1044D0006DAF05B0BDEC048BBDE8F08F0000E03F90
:1044E0002DE9F0412DED048B84B00646884602F597
:1044F000847201FB03F402EBC40103C904AD05E9B6
:10450000030002EB04146D4694E8030085E8030001
:1045100006EBC30E06EB031C03EB430006EBC000E7
:1045200006EB43170021994280F2E5809EED006A78
:1045300008FB01F402EBC405D5ED005A66EE256ACE
:104540009EED017A95ED014A67EE047A76EEE76A10
:1045500026EE044A65EE875A34EE254A9CED005A51
:1045600002EB041595ED006A65EE061ADCED014AD2
:10457000D5ED015A64EEA57A71EEE71A25EE255ABB
:1045800066EE244A75EE244A90ED005A04EB440589
:1045900002EBC50595ED006A65EE062AD0ED015ADD
:1045A000D5ED017A25EEA77A72EEC72A25EE275AB5
:1045B00066EE255A75EE255AD7ED003A02EB441403
:1045C00094ED007A23EE875A97ED016AD4ED017AD3
:1045D00026EE273A35EE435A63EEA73A27EE066AEF
:1045E00033EE866A36EE853A74EE060A36EEC55A22
:1045F00034EE464A71EEA23A34EEA51A71EEE21A92
:1046000074EEE55A96ED007A73EE237A77EE277A08
:10461000C6ED007AD6ED017A70EE816A77EEA66A71
:10462000C6ED016ADDED028A23EE286A37EE066ADE
:10463000DDED004A63EEA46A36EE266A60EEA86AF3
:1046400077EEA66A61EE242A76EEA26A9DED030A51
:1046500024EE002A9DED018A65EE882A32EE222A98
:1046600060EE452A21EE889A72EEC92A36EE429A09
:104670008EED009A36EEE29A8EED019A36EE026ADF
:1046800087ED006A76EEA26AC7ED016A23EE243A4E
:1046900037EE037A63EEA83A37EE237A60EEA44A47
:1046A00077EEA47A21EE286A77EE867A65EE805A54
:1046B00024EE086A35EEC66A65EE086A61EE805A35
:1046C00076EEE56A77EE065ACCED005A77EEA65AFA
:1046D000CCED015A37EE467A80ED007A77EEE67A35
:1046E000C0ED017A08360EF1080E0CF1080C083006
:1046F0000837013117E704B0BDEC048BBDE8F08149
:104700002DE9F0410546884623F0FEFF20F036FFF4
:1047100020F0F6FB06460F46042416E0032400E0D2
:104720000224204623F0F0FF32463B4624F0E6FA0E
:1047300058B12C4609E095FBF4F5434643F8084B85
:10474000C8F80450012D0CDD984695FBF4F304FBEA
:104750001353002BEFD0022CE0D0042CE0D0023415
:10476000DFE7BDE8F0812DE9F04F83B000900E4601
:1047700098460C9D02F584771468E80000F036FB3B
:1047800084460023019344E0DDF804904FF0000AD2
:104790002FE00CEBC10BDBED007A07EBC30090EDD3
:1047A000007A67EE876A9BED016AD0ED015A26EE2A
:1047B000255A76EEC56A67EEA57A27EE067A77EE79
:1047C000877A92ED007A37EE267A82ED007A92EDC2
:1047D000017A77EE277AC2ED017A0131A94205DA32
:1047E00006FB0E339C42D4DC1B1BD2E7C1440AF10A
:1047F000010AAA450ADACE46009B03EBC9029CE8EF
:10480000030082E8030000230121E7E7019B013355
:104810000193019A42450EDA0023DDF80090AB4285
:10482000B2DA09EBC2010CEBC30E03C98EE8030038
:1048300042440133F3E7604600F0E0FA03B0BDE81C
:10484000F08F2DE9F04F85B003900C4615461F46BA
:104850000E9B9B465BF808ABD3F8049009FB0AF863
:10486000034600EBC808B9F1010F1BD0039E0F9B54
:104870000193CDF800B03B4605FB0AF221463046D5
:10488000FFF7DFFF05FB07F304EBC30406EBC906E4
:10489000B045ECD1AAF10203032B2DD8DFE803F0D9
:1048A0000E171E2594E8030083E8030005FB07F2BA
:1048B00004EBC20408339845F4D1EBE74B460F9A5A
:1048C00029460398FFF774FC05B0BDE8F08F4B460E
:1048D0000F9A29460398FFF753FDF5E74B460F9AC9
:1048E00029460398FFF79EFCEEE74B460F9A2946B0
:1048F0000398FFF7F5FDE7E7CDF800A04B460F9AC8
:1049000029460398FFF72FFFDEE7000000000000B4
:104910002DE9F84F05460C46DDF828A000F12107E7
:10492000FF00002B38D016461A46002E39D01B68DF
:10493000BB4238D31760002E68D035607460ACB3CA
:104940000024AC425DDA204623F0DEFE34A3D3E936
:10495000002323F043FF80468946284623F0D4FEF7
:1049600002460B464046494624F062F88046894696
:1049700020F07EFA06F5847B0BEBC40B24F026FABC
:10498000CBF800004046494620F0B6FB24F01EFA62
:10499000CBF804000134D4E7384600F027FA064685
:1049A000C9E71F6032E0176000262FE0AC4228DA2A
:1049B000204623F0A9FE1CA3D3E9002323F00EFF19
:1049C00080468946284623F09FFE02460B46404615
:1049D000494624F02DF88046894620F049FA06F52C
:1049E000847B0BEBC40B24F0F1F9CBF800004046BC
:1049F000494620F081FB24F0E9F9CBF804000134AA
:104A0000D4E706F108012846FFF77AFEBAF1000F55
:104A100001D0CAF800703046BDE8F88FAFF30080CF
:104A2000182D4454FB211940182D4454FB2119C062
:104A30002DE9F04383B004460F4615461E469142C9
:104A40000BD000F108030190009333460122284661
:104A5000FFF7F7FE03B0BDE8F083814659F8080B75
:104A6000C00000F0C3F980460194CDF800903346B1
:104A700001223946FFF7E5FE2268D200414628466A
:104A800024F024FD404600F0B9F9E3E708B501231E
:104A9000FFF7CEFF08BD00002DE9F04F85B01D46A1
:104AA0000023039310F001072ED10E4690464410C8
:104AB0000022009203AB2046FFF72AFF04EB440AD2
:104AC0000AEBDA7A4FEA6A0A039B03EBCA0A0AF195
:104AD0000C0A1DB32B68534525D3C5F800A04546E5
:104AE0001DB305F10C022A60039B13446B6003EBBA
:104AF000C403AB600023009303AB31462046FFF7AD
:104B000007FF002E7ED041E0454B1B68DB68242266
:104B10000121444824F086FC002540E0504600F086
:104B200065F90546DCE7C5F800A0002537E07E1CE6
:104B3000304623F0E9FD80468946204623F0E4FD17
:104B400002460B464046494623F072FF0022364B90
:104B500023F08EFC2EA3D3E9002323F03FFE8046F2
:104B6000894620F085F9AB684FEAC70B03EBC7070E
:104B700024F02CF938604046494620F0BDFAAB6875
:104B80009B4424F023F9CBF80400374604EBD4739C
:104B9000B7EB630FCBDB0E9B0BB1C3F800A028462D
:104BA00005B0BDE8F08F771C384623F0ADFD804698
:104BB0008946204623F0A8FD02460B46404649465A
:104BC00023F036FF0022184B23F052FC12A3D3E946
:104BD000002323F003FE8046894620F049F9AB68A4
:104BE0004FEAC60B03EBC60624F0F0F830604046EF
:104BF000494620F081FAAB689B4424F0E7F8CBF8F3
:104C000004003E4604EBD473B6EB630FCBDBC2E784
:104C1000182D4454FB210940182D4454FB2109C090
:104C20006C2A0008589D04100000E03FF0B583B0E6
:104C3000074600684368002B6DD1164605687A6800
:104C4000FFF724FF7B68D3ED007A93ED017A77EECE
:104C5000876AC6ED006A06EBC50377EEC77AC3ED37
:104C6000007A002272605A60012305EBD572B3EB23
:104C7000620F5BDC7C6804EBC30292E8030002AACB
:104C800002E90300E91A04EBC104D4ED005AD4EDA3
:104C9000017A9DED007A35EE876ADDED016A36EE28
:104CA000E75A37EE657A76EEA76ABA6803F10050E4
:104CB000013802EBC002D2ED007A67EE275AD2ED3E
:104CC000014A26EEA44A75EEC45A27EE247A66EE0F
:104CD000A76A77EE267A76EE256A06EBC302B6EE71
:104CE000007A66EE876AC2ED006A75EE276A66EEA4
:104CF000876AC2ED016A36EE656A06EBC10126EEEF
:104D0000076A81ED006A77EEC57A67EE877AC1EDB2
:104D1000017A0133A9E7064B1B68DB6825220121D4
:104D2000044824F07FFB012024F0E2FA03B0F0BD38
:104D30006C2A0008809D041008B5094812F032FE64
:104D400018B9084B01221A7008BD72B6064B1B68D1
:104D5000986900220521803016F0C6F901BEF3E7FC
:104D6000E06F0008F46F0008C824020800207047B4
:104D700010B50F4B1B78BBB10E4812F073FE420109
:104D8000C30E121A63F10003990041EA9271940074
:104D9000221841F10003D90041EA5271D000C20B40
:104DA00042EA4140C90B10BDFFF7C6FFE4E700BF70
:104DB000F46F0008E06F00080FB400B583B004A9D9
:104DC00051F8040B019125F03FFB03B05DF804EBB3
:104DD00004B0704708B523F0A9FC02460B46024810
:104DE000FFF7EAFF08BD00BFA89D041008B524F036
:104DF0004FFB08BD08B524F05FFA08BD08B524F0E4
:104E00004FFB08BD2DE9F04806460F4615461C46E7
:104E10000022002323F04AFF20B100232B602360EF
:104E2000BDE8F08822463046394620F0E5F80022F9
:104E30001A4B23F0D3FC20F017F924F07FF8064634
:104E40000F464FF00042002382428B4112DB0029C3
:104E500008BFB0F1004F0FD0B6F1004F77F100035B
:104E600019DA236813F11F0F02DA002323600026EA
:104E70002E60D5E724F0FAF9C90F16EB010B47F1C4
:104E8000000C4FEA5B0242EACC764FEA6C072368DB
:104E900001332360E0E724F0E9F900BF0000E041BE
:104EA000F8B506460F4615461C460022084B23F06F
:104EB00025FF48B123462A4630463946FFF7A2FF70
:104EC0002368002B02DBF8BD24F0D0F924F0CEF9E2
:104ED0000000F03FF0B583B004460D4617461E466D
:104EE00000220E4B23F0ECFE90B10022002320465E
:104EF000294623F003FF68B101AB3A462046294614
:104F0000FFF780FF019B002B06DC336003B0F0BD90
:104F100024F0ACF924F0AAF924F0A8F90000F03F3D
:104F200030B585B023F05AFC04460D46089B4FF07F
:104F30000040D84023F0E8FB22462B4623F04EFCED
:104F400002460B46CDE9002309A3D3E90023CDE9AE
:104F5000022323F0D3FE40B969460A9B099AD1E99E
:104F60000001FFF79DFF05B030BD02A9F5E700BFC6
:104F70000000C0FFFFFFDF412DE9F8430E4601248A
:104F800004FA00FC121AA2F12001C2F1200304FA73
:104F900001F124FA03F341EA030704FA02F50CF1E4
:104FA000FF3023F0B1FB804689462846394623F07E
:104FB000E7FB02460B464046494623F00FFC80467D
:104FC0008946A6F12001C6F1200304FA01F124FA72
:104FD00003F304FA06F0194323F0D2FB02460B4612
:104FE0004046494623F024FD1FF08AFF23F0A6FE29
:104FF000BDE8F88310B52DED028B88B001910092C9
:1050000093ED038A1C6901280AD0032828D00228BE
:1050100059D0019B0C9A1360009B0D9A136019E004
:10502000DFED427AC7EE887A17EE900A20F07CF91D
:1050300007EE900AFDEEE77A17EE903A1C440394CF
:10504000019BA3420ADB01AB1B680C9A1360009B17
:105050000D9A136008B0BDEC028B10BD03ABF3E7F3
:10506000DFED327AC7EE887A17EE900A20F05CF90D
:1050700007EE900AFDEEE77A17EE903A2344049388
:10508000019A9A421BDB01AB1B680C9A1360F1EE8C
:10509000087AC7EE887A17EE900A20F045F907EEF5
:1050A000900AFDEEE77A17EE903A1C440594009BB7
:1050B000A34206DC6B461B680D9A1360CAE704AB7B
:1050C000E2E705ABF7E7FFEE007AC7EE887A17EE66
:1050D000900A20F029F907EE900AFDEEE77A17EE24
:1050E000903A23440693019A9A421BDB01AB1B685A
:1050F0000C9A1360F7EE007AC7EE887A17EE900AE2
:1051000020F012F907EE900AFDEEE77A17EE903ADA
:105110001C440794009BA34206DC6B461B680D9A57
:10512000136097E706ABE2E707ABF7E70000000084
:10513000F0B52DED028B83B005461C4691ED038A38
:10514000D2ED037A28EE278A18EE100A23F0EEFA41
:10515000B5EEC08AF1EE10FA12DB06460F46E068A3
:1051600023F0E4FA02460B463046394623F060FC51
:105170000A9BC3E90001002003B0BDEC028BF0BD27
:105180006C69044B0093A723034A04492846A047AF
:105190000120F1E7049E0410AC9D0410EC9D041066
:1051A0002DE9F04782B007460D4616461C46DDF84D
:1051B00028A0C86823F0BAFA80468946F06823F030
:1051C000B5FA02460B464046494623F007FBECB1D0
:1051D00080468946E06823F0A9FA02460B4640461D
:1051E000494623F043F9804621F00049DAF80C00E3
:1051F00023F09CFA02460B464046494623F018FC31
:1052000010A3D3E9002323F065FD50B10B9B00935D
:105210005346324629463846FFF78AFF02B0BDE8BA
:10522000F0877C69044B00939A23044A044938466A
:10523000A0470120F2E700BF209E0410AC9D04109F
:10524000EC9D04107B14AE47E17A943F30B583B0F7
:105250000546084614461278032A0DD0092A0ED0B6
:10526000072A18D06C690E4B0093DA230D4A0E49B9
:105270002846A04701200CE0FF22002102E07F2207
:105280006FF07F01069D019500932346FFF7B2FE64
:10529000002003B030BD47F6FF720449F2E700BFBB
:1052A000449E0410AC9D0410EC9D04100080FFFF90
:1052B0002DE9F04F8DB00446049391F83060012E33
:1052C00010D04769012503950296804B0193804BCE
:1052D000009335237F4A8049B8472E4630460DB0AB
:1052E000BDE8F08F0D46924692F83080B8F1010F7C
:1052F0000DD0456901230393CDF80880734B0193CA
:10530000764B00933723734A7349A847E6E7536BFC
:10531000B3B1D3F800B0BBF1000F1AD0DBF80070C6
:10532000012F5ADD0A78092A1CD0072A1AD04569AC
:105330006B4B00934723674A6A49A8474646CDE727
:105340004569694B00934223624A6649A84746462D
:10535000C4E74569654B009343235E4A6149A8470A
:105360004646BBE79AF80020092A0ED06569092352
:10537000039302925E4B01935E4B00934923554A7F
:1053800055492046A8474646A8E71E9A97420DD0A1
:10539000656903920297584B0193584B00934A2337
:1053A0004C4A4D492046A847464697E7DAF8082078
:1053B0009B6802EB830253681E9A93420DD0656985
:1053C000039302924E4B01934B4B00934B23414A64
:1053D00041492046A847464680E7D5ED037A17EEB7
:1053E000902A169BD3ED037A0BF104030026914615
:1053F00017EE908A05940695CDF81CA09A4624E0F5
:10540000DBF8040023F092F904460D46484623F0E9
:105410008DF922462B4623F0E1F904460D4640461D
:1054200023F084F902460B462046294623F000FB70
:105430000AAB09AAFFF7E6FC099B1C9A42F8263042
:105440000A9B1D9A42F8263001361E9B9E4205DAC1
:10545000012FD5DD0AEB86031868D3E7059C069D6E
:10546000DDF81CA02B78032B08D02B78092B22D039
:10547000032B20D0072B1ED000262FE7002200236D
:10548000CDE90A230AAB0193169B0093049B524675
:1054900029462046FFF784FE064600287FF41EAF0B
:1054A00009AB189ADDE90A01FFF7ACFC099B5B42E6
:1054B000199A1360D9E71B9B00931A9B169A1799A8
:1054C00009782046FFF7C2FE064607E7689E0410EB
:1054D000849E0410AC9D04104C9E0410A09E0410E9
:1054E000EC9E0410EC9D0410BC9E0410D09E041091
:1054F000289F0410349F0410449F0410549F0410EC
:10550000789F041008B589688068FEF736FC00387B
:1055100018BF012008BDF0B595B007460E461546E8
:10552000026812920B6813939A4210DB12AB1C684C
:1055300004232B700C94052C07DD6FF060439C4214
:1055400007D2A0001FF0D1FB0D9000230FE013AB9A
:10555000EDE74FF0FF30F5E723F088FE23F086FEFD
:10556000012114AA02EB830242F81C1C01339C4265
:105570000BDD002BF0DB0C9A9342EFDA052AEFDD0E
:105580000D9A012142F82310F0E7002306933B68AF
:105590009C420FDB069B052B03DD079808B11FF02B
:1055A00082FB0694052C0CDD6FF060439C4203D215
:1055B000A00003E023F05AFE4FF0FF301FF095FBF0
:1055C00007903868201A00230AE023F04FFE23F0EA
:1055D0004DFE012114AA02EB830242F8341C013370
:1055E00098420BDD002BF0DB069A9342EFDA052A96
:1055F000EFDD079A012142F82310F0E7069B052B07
:105600001EDD079B03EB80003A68052A1ADD7968E6
:10561000920023F05BFF0023009333689C4213DB6E
:10562000009B052B03DD019808B11FF03CFB0094A3
:10563000052C10DD6FF060439C4207D2A00007E00C
:1056400007ABDFE7391DE3E723F010FE4FF0FF3033
:105650001FF04BFB01903068201A00230AE023F072
:1056600005FE23F003FE012114AA02EB830242F897
:105670004C1C013398420BDD002BF0DB009A934267
:10568000EFDA052AEFDD019A012142F82310F0E755
:10569000009B052B01DD019B00E001AB03EB8000CB
:1056A0003268052A29DD7168920023F00FFF069AFF
:1056B000009B9A4223D000239BBB631E1A46002AFC
:1056C00062DB49DB06998A4248DA052948DD0799F9
:1056D00051F82200002A49DB00998A4248DA05295C
:1056E00048DD019951F82210814249D0012849D062
:1056F00001295BD103222A7046E0311DD4E7052A37
:1057000009DD0798052B08DD0199920023F0D0FEF2
:1057100028B90123D0E707A8F4E701A9F5E700239A
:10572000CAE701232B700024009B052B03DD0198A1
:1057300008B11FF0B8FA069B052B03DD079808B1E6
:105740001FF0B1FA0C9B052B03DD0D9808B11FF07B
:10575000AAFA204615B0F0BD23F088FD23F086FD9F
:1057600014A901EB820151F8340CB3E723F07EFD5C
:1057700023F07CFD14A901EB820151F84C1CB3E726
:10578000013A9CE702222A7029788A1ED2B2012AA5
:1057900010D8032910D006AA03290FD0694601208A
:1057A000E86328646864A864E8641FE004232B703D
:1057B0000124B9E723F05AFD6A46EDE706A9EEE7B2
:1057C00023F054FD23F052FD02EB8300446818E0FF
:1057D00023F04CFD23F04AFD01EB83004068A0421A
:1057E0002ED1EC6C00FB04F0E864013B002B27DBBE
:1057F000E6DB10688342E5DA0528E5DD506850F8FD
:105800002340002BE4DB08688342E3DA0528E3DD6C
:10581000486850F82300E2E723F028FD23F026FD36
:1058200002EB8300406816E023F020FD23F01EFD0C
:1058300001EB83004068AC6C00FB04F0A864013B02
:10584000002B2BDBE8DB10688342E7DA0528E7DD75
:10585000506850F82300012820D1002BE4DB0868B1
:105860008342E3DA0528E3DD486850F82300E2E7E5
:1058700023F0FCFC23F0FAFC02EB8300406818E004
:1058800023F0F4FC23F0F2FC01EB8304646884420F
:105890002ED16C6C00FB04F06864013B002B27DB0D
:1058A000E6DB10688342E5DA0528E5DD506850F84C
:1058B0002300002BE4DB0C68A342E3DA052CE3DDD4
:1058C0004C6854F82340E2E723F0D0FC23F0CEFCF0
:1058D00001EB8300406816E023F0C8FC23F0C6FC0F
:1058E00002EB830040682C6C00FB04F02864013B51
:1058F000002B2BDBE8DB08688342E7DA0528E7DDCD
:10590000486850F82300012820D1002BE4DB106800
:105910008342E3DA0528E3DD506850F82300E2E72C
:1059200023F0A4FC23F0A2FC02EB8300446818E0FF
:1059300023F09CFC23F09AFC486850F82300A04216
:105940001AD1EC6B00FB04F0E863013B002B13DB86
:10595000E6DB10688342E5DA0528E5DD506850F89B
:105960002340002BE4DB08688342E3DA0528E3DC0C
:1059700001EB83004068E2E7002B03DB04232B707C
:105980000124D1E60124CFE62DE9F04F2DED028B65
:1059900085B006460F4691469846109D119C1946C3
:1059A0001046FFF7AFFD80F0010020702B78032B2D
:1059B00003D0092B01D0002066E0D9F810305B42FB
:1059C000A362D8F810305B42E3622B69236314238F
:1059D000636209F10C0208F10C03D9ED038A98ED1A
:1059E000038AF4EEC88AF1EE10FA00D41346186860
:1059F00022F09CFE02460B4622F03AFD8046894684
:105A000018EE900A22F092FE42464B4623F010F820
:105A100082468B4618EE100A22F088FE42464B461C
:105A200023F006F8CDE90201E86822F07FFE0022AB
:105A3000184B22F0D3FE02460B464046494622F060
:105A4000F7FF80468946231D04F11402504659464B
:105A5000FFF740FA04F1080304F11802DDE902013E
:105A6000FFF738FA04F1200304F11C0240464946CE
:105A7000FFF730FA04F11003009304F10C032A46F7
:105A800039783046FFF7E2FB05B0BDEC028BBDE88C
:105A9000F08F00BF00003041004870472423000809
:105AA000012809D003280CD002280FD06FF400037E
:105AB0000B60094B1360704700230B60064B1360AB
:105AC000704700230B60054B13607047044B0B605D
:105AD0004FF07E5313607047FFFF7F7F0000C04090
:105AE000000080BF2DE9F041D8B010461F465E9CF3
:105AF0005F9D609E32AA33A90078FFF7D1FF339BE8
:105B00002B93329B2C933B78002B00F0E9829CB1C5
:105B1000D4F8088058F8047B3497052F07DD6FF020
:105B200060439F420BD2B8001FF0DFF83590349BE2
:105B3000052B07DD359806E00023349307E04FF08E
:105B4000FF30F1E735A8BA00414623F0BFFC04B1AD
:105B500064689DB1D5F8088058F8047B3A97052F02
:105B600007DD6FF060439F420BD2B8001FF0BDF815
:105B70003B903A9B052B07DD3B9806E000233A93C8
:105B800007E04FF0FF30F1E73BA8BA00414623F0B1
:105B90009DFC05B16D689EB1D6F8088058F8047B6D
:105BA0004097052F07DD6FF060439F420BD2B8008E
:105BB0001FF09BF84190409B052B07DD419806E0C4
:105BC0000023409307E04FF0FF30F1E741A8BA000F
:105BD000414623F07BFC06B1766800230293349B98
:105BE000042B0CDC029B052B03DD039808B11FF08E
:105BF0005AF8042302933498181A00230BE023F078
:105C000035FB23F033FB23F031FB02AA02EB8302C6
:105C100001215160013398420BDD002BF1DB029A28
:105C20009342F0DA052AF0DD039A012142F82310AD
:105C3000F0E7029B052B1BDD039B03EB8000349AEE
:105C4000052A17DD3599920023F040FC00230893C4
:105C50003A9B042B10DC089B052B03DD099808B147
:105C60001FF021F8042308933A98181A00230FE034
:105C700003ABE2E735A9E6E723F0F8FA23F0F6FAFA
:105C800023F0F4FA08AA02EB8302012151600133E8
:105C900098420BDD002BF1DB089A9342F0DA052ADB
:105CA000F0DD099A012142F82310F0E7089B052B4B
:105CB0000CDD099B03EB80003A9A052A08DD3B992D
:105CC000920023F003FC0323012117E009ABF1E765
:105CD0003BA9F5E723F0CAFA23F0C8FA02AA02EBBF
:105CE0008302506815E023F0C1FA23F0BFFA02AA3C
:105CF00002EB8302526802FB01F1013B002B19DB2E
:105D0000E8DB029A9342E7DA052AE7DD039A52F8C4
:105D100023000EAA42F82300181D42F82010002B81
:105D2000E1DB029A9342E0DA052AE0DD039A52F8B9
:105D30002320E0E70323012113E023F097FA23F067
:105D400095FA08AA02EB8302506815E023F08EFA58
:105D500023F08CFA08AA02EB8302526802FB01F1DD
:105D6000013B002B19DBE8DB089A9342E7DA052AAE
:105D7000E7DD099A52F8230016AA42F82300181DFD
:105D800042F82010002BE1DB089A9342E0DA052A62
:105D9000E0DD099A52F82320E0E700231BE023F01E
:105DA00065FA23F063FA02AA02EB830252681EE04E
:105DB00023F05CFA23F05AFA08A901EB8301496841
:105DC0001FE0012929D116A8191D002740F82170CC
:105DD00040F823200133032B21DC002BDFDB029A68
:105DE0009342DEDA052ADEDD039A52F82320002BE7
:105DF000DEDB08998B42DDDA0529DDDD099951F8F2
:105E000023109142E6D0012ADBD10EA81A1D0027EB
:105E100040F8227040F82310DCE723F027FA089BB3
:105E2000052B03DD099808B11EF03DFF029B052BF1
:105E300003DD039808B11EF036FF00230893409B52
:105E4000042B0CDC089B052B03DD099808B11EF020
:105E50002AFF042308934098181A00230BE023F02C
:105E600005FA23F003FA23F001FA08AA02EB8302F1
:105E700001215160013398420BDD002BF1DB089AC0
:105E80009342F0DA052AF0DD099A012142F8231045
:105E9000F0E7089B052B0CDD099B03EB8000409A83
:105EA000052A08DD4199920023F010FB4FF0000C09
:105EB000EAE009ABF1E741A9F5E723F0D7F9099B3F
:105EC000EBE023F0D3F90A9AD8E023F0CFF90B994D
:105ED000C6E023F0CBF90998C068814280F2B68011
:105EE000BCF1000FC0F294800E98844580F290803F
:105EF000002BC0F28F800F98834280F28B80002AA3
:105F0000C0F28A801098824280F286800029C0F216
:105F100085801198814280F281801298139F07FB3F
:105F200003F700FB0C70149F07FB0207159800FB9A
:105F3000017004EB8000D0ED007ABCF1000F6FDB44
:105F4000169884456CDA002B6CDB1798834269DA6B
:105F5000002A69DB1898824266DA002966DB199804
:105F6000814263DA1A981B9F07FB03F700FB0C7052
:105F70001C9F07FB02071D9800FB017005EB8000CA
:105F800090ED007A77EE877ADDED2B6A9DED2C7A25
:105F9000089804284CD1BCF1000F4BDB09988445CC
:105FA00048DA002B48DBDDF828E0734544DA002AA4
:105FB00044DB0B9FBA4241DA002941DB0C98814255
:105FC0003EDA0EFB0C3E0EFB072707FB001006EB2C
:105FD0008000CDED027ACDED016A8DED007AF4EE10
:105FE000E67AF1EE10FA2DD402AFD7ED007AB4EED6
:105FF000E77AF1EE10FA27D43F680760013108987C
:1060000003287FF766AF05283FF765AF0C9864E774
:1060100023F02CF923F02AF923F028F923F026F9AC
:1060200023F024F923F022F923F020F923F01EF9BC
:1060300023F01CF923F01AF923F018F923F016F9CC
:1060400023F014F901AFD0E76F46D5E70132089984
:1060500002297FF73AAF05297FF739AF0999896897
:106060008A4201DA0021CAE70133089A012A7FF740
:1060700028AF052A7FF727AF099A5268934201DAC1
:106080000022E4E70CF1010C089B002B7FF715AF11
:10609000052B7FF714AF099B1B689C4501DA002391
:1060A000E3E7089B052B03DD099808B11EF0FBFD13
:1060B000409B052B03DD419808B11EF0F4FD3A9B8F
:1060C000052B03DD3B9808B11EF0EDFD349B052B3D
:1060D00003DD359808B11EF0E6FD58B0BDE8F0814B
:1060E0009CB1D4F8088058F8047B4697052F07DD4B
:1060F0006FF060439F420BD2B8001EF0F6FD479050
:10610000469B052B07DD479806E00023469307E0F2
:106110004FF0FF30F1E747A8BA00414623F0D6F927
:1061200004B164689DB1D5F8088058F8047B4C9799
:10613000052F07DD6FF060439F420BD2B8001EF0C1
:10614000D4FD4D904C9B052B07DD4D9806E00023B8
:106150004C9307E04FF0FF30F1E74DA8BA004146FD
:1061600023F0B4F905B16D689EB1D6F8088058F8EF
:10617000047B5297052F07DD6FF060439F420BD2DF
:10618000B8001EF0B2FD5390529B052B07DD5398CB
:1061900006E00023529307E04FF0FF30F1E753A8E9
:1061A000BA00414623F092F906B17668469A052A6C
:1061B00004DD479F00234FF0010C06E047AFF9E7ED
:1061C00057F8230000FB0CFC01339A42F8DC4C9892
:1061D000052803DD4D9F0023012206E04DAFFAE7BD
:1061E00057F8231001FB02F201339842F8DC529F6A
:1061F000052F04DDDDF84CE10023012007E00DF55B
:10620000A67EF9E75EF8231001FB00F001339F4200
:10621000F8DC944503D1824203D1002308E023F047
:1062200025F823F023F80EAA20E01268026001335B
:10623000634524DA04EB8302D2ED007A05EB830296
:1062400092ED007A77EE877ADDED2B6A9DED2C7A60
:1062500006EB8300CDED167ACDED0E6A8DED087A52
:10626000F4EEE67AF1EE10FADDD416AAD2ED007A59
:10627000B4EEE77AF1EE10FAD7D508AAD5E7529B2B
:10628000052B03DD539808B11EF00DFD4C9B052B2B
:1062900003DD4D9808B11EF006FD469B052B7FF7E8
:1062A0001CAF479800283FF418AF1EF0FCFC14E721
:1062B0007047084070470841704708447047C04322
:1062C000704708B510B10020FFF7F9FF08BD08B509
:1062D0008842ACBF00200120FFF7F3FF08BD08B5DE
:1062E0008842D4BF00200120FFF7EBFF08BD00006B
:1062F0002DE9F04FABB005921D46359C0023089365
:106300000B68042B0EDC80460E46089B052B03DD34
:10631000099808B11EF0C7FC042308933068181AC6
:1063200000230CE022F0A2FF22F0A0FF22F09EFF4B
:1063300001212AAA02EB830242F8841C013398420D
:106340000BDD002BF0DB089A9342EFDA052AEFDD34
:10635000099A012142F82310F0E7089B052B1BDD69
:10636000099B03EB80003268052A17DD71689200F3
:1063700023F0ACF800230E932B68042B10DC0E9B4B
:10638000052B03DD0F9808B11EF08DFC04230E933E
:106390002868181A002310E009ABE2E7311DE6E790
:1063A00022F064FF22F062FF22F060FF01212AAA9E
:1063B00002EB830242F86C1C013398420BDD002B88
:1063C000F0DB0E9A9342EFDA052AEFDD0F9A0121F6
:1063D00042F82310F0E70E9B052B0CDD0F9B03EB1F
:1063E00080002A68052A08DD6968920023F06EF8AB
:1063F0000323012119E00FABF1E7291DF5E722F096
:1064000035FF22F033FF2AAA02EB830252F8842CD4
:1064100016E022F02BFF22F029FF2AAA02EB8302CA
:1064200052F8842C02FB01F1013B002B1EDBE6DB62
:10643000089A9342E5DA052AE5DD099A52F8232005
